{
  "_format": "hh-sol-artifact-1",
  "contractName": "BlindBagNFT",
  "sourceName": "contracts/BlindBagNFT.sol",
  "abi": [
    {
      "inputs": [],
      "stateMutability": "nonpayable",
      "type": "constructor"
    },
    {
      "inputs": [
        {
          "internalType": "address",
          "name": "sender",
          "type": "address"
        },
        {
          "internalType": "uint256",
          "name": "tokenId",
          "type": "uint256"
        },
        {
          "internalType": "address",
          "name": "owner",
          "type": "address"
        }
      ],
      "name": "ERC721IncorrectOwner",
      "type": "error"
    },
    {
      "inputs": [
        {
          "internalType": "address",
          "name": "operator",
          "type": "address"
        },
        {
          "internalType": "uint256",
          "name": "tokenId",
          "type": "uint256"
        }
      ],
      "name": "ERC721InsufficientApproval",
      "type": "error"
    },
    {
      "inputs": [
        {
          "internalType": "address",
          "name": "approver",
          "type": "address"
        }
      ],
      "name": "ERC721InvalidApprover",
      "type": "error"
    },
    {
      "inputs": [
        {
          "internalType": "address",
          "name": "operator",
          "type": "address"
        }
      ],
      "name": "ERC721InvalidOperator",
      "type": "error"
    },
    {
      "inputs": [
        {
          "internalType": "address",
          "name": "owner",
          "type": "address"
        }
      ],
      "name": "ERC721InvalidOwner",
      "type": "error"
    },
    {
      "inputs": [
        {
          "internalType": "address",
          "name": "receiver",
          "type": "address"
        }
      ],
      "name": "ERC721InvalidReceiver",
      "type": "error"
    },
    {
      "inputs": [
        {
          "internalType": "address",
          "name": "sender",
          "type": "address"
        }
      ],
      "name": "ERC721InvalidSender",
      "type": "error"
    },
    {
      "inputs": [
        {
          "internalType": "uint256",
          "name": "tokenId",
          "type": "uint256"
        }
      ],
      "name": "ERC721NonexistentToken",
      "type": "error"
    },
    {
      "inputs": [
        {
          "internalType": "address",
          "name": "owner",
          "type": "address"
        }
      ],
      "name": "OwnableInvalidOwner",
      "type": "error"
    },
    {
      "inputs": [
        {
          "internalType": "address",
          "name": "account",
          "type": "address"
        }
      ],
      "name": "OwnableUnauthorizedAccount",
      "type": "error"
    },
    {
      "anonymous": false,
      "inputs": [
        {
          "indexed": true,
          "internalType": "address",
          "name": "owner",
          "type": "address"
        },
        {
          "indexed": true,
          "internalType": "address",
          "name": "approved",
          "type": "address"
        },
        {
          "indexed": true,
          "internalType": "uint256",
          "name": "tokenId",
          "type": "uint256"
        }
      ],
      "name": "Approval",
      "type": "event"
    },
    {
      "anonymous": false,
      "inputs": [
        {
          "indexed": true,
          "internalType": "address",
          "name": "owner",
          "type": "address"
        },
        {
          "indexed": true,
          "internalType": "address",
          "name": "operator",
          "type": "address"
        },
        {
          "indexed": false,
          "internalType": "bool",
          "name": "approved",
          "type": "bool"
        }
      ],
      "name": "ApprovalForAll",
      "type": "event"
    },
    {
      "anonymous": false,
      "inputs": [
        {
          "indexed": false,
          "internalType": "uint256",
          "name": "_fromTokenId",
          "type": "uint256"
        },
        {
          "indexed": false,
          "internalType": "uint256",
          "name": "_toTokenId",
          "type": "uint256"
        }
      ],
      "name": "BatchMetadataUpdate",
      "type": "event"
    },
    {
      "anonymous": false,
      "inputs": [
        {
          "indexed": false,
          "internalType": "uint256",
          "name": "_tokenId",
          "type": "uint256"
        }
      ],
      "name": "MetadataUpdate",
      "type": "event"
    },
    {
      "anonymous": false,
      "inputs": [
        {
          "indexed": true,
          "internalType": "address",
          "name": "previousOwner",
          "type": "address"
        },
        {
          "indexed": true,
          "internalType": "address",
          "name": "newOwner",
          "type": "address"
        }
      ],
      "name": "OwnershipTransferred",
      "type": "event"
    },
    {
      "anonymous": false,
      "inputs": [
        {
          "indexed": true,
          "internalType": "uint256",
          "name": "tokenId",
          "type": "uint256"
        },
        {
          "indexed": true,
          "internalType": "address",
          "name": "to",
          "type": "address"
        },
        {
          "indexed": false,
          "internalType": "enum BlindBagNFT.Rarity",
          "name": "rarity",
          "type": "uint8"
        },
        {
          "indexed": true,
          "internalType": "uint256",
          "name": "eventId",
          "type": "uint256"
        }
      ],
      "name": "StickerMinted",
      "type": "event"
    },
    {
      "anonymous": false,
      "inputs": [
        {
          "indexed": true,
          "internalType": "uint256",
          "name": "eventId",
          "type": "uint256"
        },
        {
          "indexed": false,
          "internalType": "string",
          "name": "templateUri",
          "type": "string"
        },
        {
          "indexed": false,
          "internalType": "enum BlindBagNFT.Rarity",
          "name": "rarity",
          "type": "uint8"
        }
      ],
      "name": "TemplateAdded",
      "type": "event"
    },
    {
      "anonymous": false,
      "inputs": [
        {
          "indexed": true,
          "internalType": "address",
          "name": "from",
          "type": "address"
        },
        {
          "indexed": true,
          "internalType": "address",
          "name": "to",
          "type": "address"
        },
        {
          "indexed": true,
          "internalType": "uint256",
          "name": "tokenId",
          "type": "uint256"
        }
      ],
      "name": "Transfer",
      "type": "event"
    },
    {
      "inputs": [
        {
          "internalType": "uint256",
          "name": "_eventId",
          "type": "uint256"
        },
        {
          "internalType": "string",
          "name": "_templateUri",
          "type": "string"
        },
        {
          "internalType": "enum BlindBagNFT.Rarity",
          "name": "_rarity",
          "type": "uint8"
        }
      ],
      "name": "addStickerTemplate",
      "outputs": [],
      "stateMutability": "nonpayable",
      "type": "function"
    },
    {
      "inputs": [
        {
          "internalType": "address",
          "name": "to",
          "type": "address"
        },
        {
          "internalType": "uint256",
          "name": "tokenId",
          "type": "uint256"
        }
      ],
      "name": "approve",
      "outputs": [],
      "stateMutability": "nonpayable",
      "type": "function"
    },
    {
      "inputs": [
        {
          "internalType": "address",
          "name": "owner",
          "type": "address"
        }
      ],
      "name": "balanceOf",
      "outputs": [
        {
          "internalType": "uint256",
          "name": "",
          "type": "uint256"
        }
      ],
      "stateMutability": "view",
      "type": "function"
    },
    {
      "inputs": [
        {
          "internalType": "uint256",
          "name": "",
          "type": "uint256"
        },
        {
          "internalType": "uint256",
          "name": "",
          "type": "uint256"
        }
      ],
      "name": "eventStickerTemplates",
      "outputs": [
        {
          "internalType": "string",
          "name": "",
          "type": "string"
        }
      ],
      "stateMutability": "view",
      "type": "function"
    },
    {
      "inputs": [
        {
          "internalType": "uint256",
          "name": "tokenId",
          "type": "uint256"
        }
      ],
      "name": "getApproved",
      "outputs": [
        {
          "internalType": "address",
          "name": "",
          "type": "address"
        }
      ],
      "stateMutability": "view",
      "type": "function"
    },
    {
      "inputs": [
        {
          "internalType": "enum BlindBagNFT.Rarity",
          "name": "_rarity",
          "type": "uint8"
        }
      ],
      "name": "getRarityString",
      "outputs": [
        {
          "internalType": "string",
          "name": "",
          "type": "string"
        }
      ],
      "stateMutability": "pure",
      "type": "function"
    },
    {
      "inputs": [
        {
          "internalType": "address",
          "name": "_user",
          "type": "address"
        },
        {
          "internalType": "uint256",
          "name": "_eventId",
          "type": "uint256"
        }
      ],
      "name": "getUserStickers",
      "outputs": [
        {
          "internalType": "uint256[]",
          "name": "",
          "type": "uint256[]"
        }
      ],
      "stateMutability": "view",
      "type": "function"
    },
    {
      "inputs": [
        {
          "internalType": "address",
          "name": "owner",
          "type": "address"
        },
        {
          "internalType": "address",
          "name": "operator",
          "type": "address"
        }
      ],
      "name": "isApprovedForAll",
      "outputs": [
        {
          "internalType": "bool",
          "name": "",
          "type": "bool"
        }
      ],
      "stateMutability": "view",
      "type": "function"
    },
    {
      "inputs": [
        {
          "internalType": "address",
          "name": "_to",
          "type": "address"
        },
        {
          "internalType": "uint256",
          "name": "_eventId",
          "type": "uint256"
        },
        {
          "internalType": "string",
          "name": "_name",
          "type": "string"
        },
        {
          "internalType": "string",
          "name": "_category",
          "type": "string"
        }
      ],
      "name": "mintRandomSticker",
      "outputs": [
        {
          "internalType": "uint256",
          "name": "",
          "type": "uint256"
        }
      ],
      "stateMutability": "nonpayable",
      "type": "function"
    },
    {
      "inputs": [],
      "name": "name",
      "outputs": [
        {
          "internalType": "string",
          "name": "",
          "type": "string"
        }
      ],
      "stateMutability": "view",
      "type": "function"
    },
    {
      "inputs": [],
      "name": "owner",
      "outputs": [
        {
          "internalType": "address",
          "name": "",
          "type": "address"
        }
      ],
      "stateMutability": "view",
      "type": "function"
    },
    {
      "inputs": [
        {
          "internalType": "uint256",
          "name": "tokenId",
          "type": "uint256"
        }
      ],
      "name": "ownerOf",
      "outputs": [
        {
          "internalType": "address",
          "name": "",
          "type": "address"
        }
      ],
      "stateMutability": "view",
      "type": "function"
    },
    {
      "inputs": [
        {
          "internalType": "enum BlindBagNFT.Rarity",
          "name": "",
          "type": "uint8"
        }
      ],
      "name": "rarityWeights",
      "outputs": [
        {
          "internalType": "uint256",
          "name": "",
          "type": "uint256"
        }
      ],
      "stateMutability": "view",
      "type": "function"
    },
    {
      "inputs": [],
      "name": "renounceOwnership",
      "outputs": [],
      "stateMutability": "nonpayable",
      "type": "function"
    },
    {
      "inputs": [
        {
          "internalType": "address",
          "name": "from",
          "type": "address"
        },
        {
          "internalType": "address",
          "name": "to",
          "type": "address"
        },
        {
          "internalType": "uint256",
          "name": "tokenId",
          "type": "uint256"
        }
      ],
      "name": "safeTransferFrom",
      "outputs": [],
      "stateMutability": "nonpayable",
      "type": "function"
    },
    {
      "inputs": [
        {
          "internalType": "address",
          "name": "from",
          "type": "address"
        },
        {
          "internalType": "address",
          "name": "to",
          "type": "address"
        },
        {
          "internalType": "uint256",
          "name": "tokenId",
          "type": "uint256"
        },
        {
          "internalType": "bytes",
          "name": "data",
          "type": "bytes"
        }
      ],
      "name": "safeTransferFrom",
      "outputs": [],
      "stateMutability": "nonpayable",
      "type": "function"
    },
    {
      "inputs": [
        {
          "internalType": "address",
          "name": "operator",
          "type": "address"
        },
        {
          "internalType": "bool",
          "name": "approved",
          "type": "bool"
        }
      ],
      "name": "setApprovalForAll",
      "outputs": [],
      "stateMutability": "nonpayable",
      "type": "function"
    },
    {
      "inputs": [
        {
          "internalType": "uint256",
          "name": "",
          "type": "uint256"
        }
      ],
      "name": "stickerNFTs",
      "outputs": [
        {
          "internalType": "uint256",
          "name": "tokenId",
          "type": "uint256"
        },
        {
          "internalType": "string",
          "name": "name",
          "type": "string"
        },
        {
          "internalType": "enum BlindBagNFT.Rarity",
          "name": "rarity",
          "type": "uint8"
        },
        {
          "internalType": "uint256",
          "name": "eventId",
          "type": "uint256"
        },
        {
          "internalType": "string",
          "name": "category",
          "type": "string"
        },
        {
          "internalType": "uint256",
          "name": "mintTime",
          "type": "uint256"
        }
      ],
      "stateMutability": "view",
      "type": "function"
    },
    {
      "inputs": [
        {
          "internalType": "bytes4",
          "name": "interfaceId",
          "type": "bytes4"
        }
      ],
      "name": "supportsInterface",
      "outputs": [
        {
          "internalType": "bool",
          "name": "",
          "type": "bool"
        }
      ],
      "stateMutability": "view",
      "type": "function"
    },
    {
      "inputs": [],
      "name": "symbol",
      "outputs": [
        {
          "internalType": "string",
          "name": "",
          "type": "string"
        }
      ],
      "stateMutability": "view",
      "type": "function"
    },
    {
      "inputs": [
        {
          "internalType": "uint256",
          "name": "tokenId",
          "type": "uint256"
        }
      ],
      "name": "tokenURI",
      "outputs": [
        {
          "internalType": "string",
          "name": "",
          "type": "string"
        }
      ],
      "stateMutability": "view",
      "type": "function"
    },
    {
      "inputs": [
        {
          "internalType": "address",
          "name": "from",
          "type": "address"
        },
        {
          "internalType": "address",
          "name": "to",
          "type": "address"
        },
        {
          "internalType": "uint256",
          "name": "tokenId",
          "type": "uint256"
        }
      ],
      "name": "transferFrom",
      "outputs": [],
      "stateMutability": "nonpayable",
      "type": "function"
    },
    {
      "inputs": [
        {
          "internalType": "address",
          "name": "newOwner",
          "type": "address"
        }
      ],
      "name": "transferOwnership",
      "outputs": [],
      "stateMutability": "nonpayable",
      "type": "function"
    }
  ],
  "bytecode": "0x60806040523480156200001157600080fd5b50336040518060400160405280600c81526020016b22bb32b73a29ba34b1b5b2b960a11b815250604051806040016040528060048152602001634553544b60e01b815250816000908162000066919062000270565b50600162000075828262000270565b5050506001600160a01b038116620000a757604051631e4fbdf760e01b81526000600482015260240160405180910390fd5b620000b28162000179565b50600b6020526101f47fdf7de25b7f1fd6d0b5205f0e18f1f35bd7b8d84cce336588d184533ce43a6f765561012c7f72c6bfb7988af3a1efa6568f02a999bc52252641c659d85961ca3d372b57d5cf5560967fa50eece07c7db1631545c0069bd8f5f54d5935e215d59097edf258a44ba916345560287f64c15cc42be7899b001f818cf4433057002112c418d1d3a67cd5cb453051d33e556004600052600a7f12d0c11577e2f0950f57c455c117796550b79f444811db8ba2f69c57b646c784556200033c565b600780546001600160a01b038381166001600160a01b0319831681179093556040519116919082907f8be0079c531659141344cd1fd0a4f28419497f9722a3daafe3b4186f6b6457e090600090a35050565b634e487b7160e01b600052604160045260246000fd5b600181811c90821680620001f657607f821691505b6020821081036200021757634e487b7160e01b600052602260045260246000fd5b50919050565b601f8211156200026b57600081815260208120601f850160051c81016020861015620002465750805b601f850160051c820191505b81811015620002675782815560010162000252565b5050505b505050565b81516001600160401b038111156200028c576200028c620001cb565b620002a4816200029d8454620001e1565b846200021d565b602080601f831160018114620002dc5760008415620002c35750858301515b600019600386901b1c1916600185901b17855562000267565b600085815260208120601f198616915b828110156200030d57888601518255948401946001909101908401620002ec565b50858210156200032c5787850151600019600388901b60f8161c191681555b5050505050600190811b01905550565b6120e2806200034c6000396000f3fe608060405234801561001057600080fd5b506004361061014d5760003560e01c806370a08231116100c3578063c87b56dd1161007c578063c87b56dd146102ce578063cdb1bbf3146102e1578063cf09780d14610301578063d648167514610314578063e985e9c514610334578063f2fde38b1461034757600080fd5b806370a0823114610274578063715018a6146102875780638da5cb5b1461028f57806395d89b41146102a0578063a22cb465146102a8578063b88d4fde146102bb57600080fd5b806319a303bb1161011557806319a303bb146101e257806323b872dd146101f55780633753afd5146102085780633e6351ae1461022d57806342842e0e1461024e5780636352211e1461026157600080fd5b806301ffc9a71461015257806302aed60d1461017a57806306fdde031461019a578063081812fc146101a2578063095ea7b3146101cd575b600080fd5b610165610160366004611962565b61035a565b60405190151581526020015b60405180910390f35b61018d61018836600461197f565b61036b565b60405161017191906119f1565b61018d610424565b6101b56101b0366004611a04565b6104b6565b6040516001600160a01b039091168152602001610171565b6101e06101db366004611a32565b6104df565b005b61018d6101f0366004611a72565b6104ee565b6101e0610203366004611a8d565b61063b565b61021b610216366004611a04565b6106cb565b60405161017196959493929190611b06565b61024061023b366004611c04565b610818565b604051908152602001610171565b6101e061025c366004611a8d565b610b34565b6101b561026f366004611a04565b610b54565b610240610282366004611c84565b610b5f565b6101e0610ba7565b6007546001600160a01b03166101b5565b61018d610bbb565b6101e06102b6366004611ca1565b610bca565b6101e06102c9366004611cdf565b610bd5565b61018d6102dc366004611a04565b610bed565b6102f46102ef366004611a32565b610bf8565b6040516101719190611d53565b6101e061030f366004611d97565b610dcb565b610240610322366004611a72565b600b6020526000908152604090205481565b610165610342366004611dee565b610e3b565b6101e0610355366004611c84565b610e69565b600061036582610ea7565b92915050565b600a602052816000526040600020818154811061038757600080fd5b906000526020600020016000915091505080546103a390611e1c565b80601f01602080910402602001604051908101604052809291908181526020018280546103cf90611e1c565b801561041c5780601f106103f15761010080835404028352916020019161041c565b820191906000526020600020905b8154815290600101906020018083116103ff57829003601f168201915b505050505081565b60606000805461043390611e1c565b80601f016020809104026020016040519081016040528092919081815260200182805461045f90611e1c565b80156104ac5780601f10610481576101008083540402835291602001916104ac565b820191906000526020600020905b81548152906001019060200180831161048f57829003601f168201915b5050505050905090565b60006104c182610ecc565b506000828152600460205260409020546001600160a01b0316610365565b6104ea828233610f05565b5050565b6060600082600481111561050457610504611ace565b0361052b57505060408051808201909152600681526521b7b6b6b7b760d11b602082015290565b600182600481111561053f5761053f611ace565b036105685750506040805180820190915260088152672ab731b7b6b6b7b760c11b602082015290565b600282600481111561057c5761057c611ace565b036105a15750506040805180820190915260048152635261726560e01b602082015290565b60038260048111156105b5576105b5611ace565b036105da5750506040805180820190915260048152634570696360e01b602082015290565b60048260048111156105ee576105ee611ace565b036106185750506040805180820190915260098152684c6567656e6461727960b81b602082015290565b50506040805180820190915260078152662ab735b737bbb760c91b602082015290565b6001600160a01b03821661066a57604051633250574960e11b8152600060048201526024015b60405180910390fd5b6000610677838333610f12565b9050836001600160a01b0316816001600160a01b0316146106c5576040516364283d7b60e01b81526001600160a01b0380861660048301526024820184905282166044820152606401610661565b50505050565b600960205260009081526040902080546001820180549192916106ed90611e1c565b80601f016020809104026020016040519081016040528092919081815260200182805461071990611e1c565b80156107665780601f1061073b57610100808354040283529160200191610766565b820191906000526020600020905b81548152906001019060200180831161074957829003601f168201915b5050505060028301546003840154600485018054949560ff909316949193509061078f90611e1c565b80601f01602080910402602001604051908101604052809291908181526020018280546107bb90611e1c565b80156108085780601f106107dd57610100808354040283529160200191610808565b820191906000526020600020905b8154815290600101906020018083116107eb57829003601f168201915b5050505050908060050154905086565b600061082261100d565b60088054908190600061083483611e6c565b9190505550600061084361103a565b90506000600a6000888152602001908152602001600020805480602002602001604051908101604052809291908181526020016000905b8282101561092657838290600052602060002001805461089990611e1c565b80601f01602080910402602001604051908101604052809291908181526020018280546108c590611e1c565b80156109125780601f106108e757610100808354040283529160200191610912565b820191906000526020600020905b8154815290600101906020018083116108f557829003601f168201915b50505050508152602001906001019061087a565b505050509050600081511161098b5760405162461bcd60e51b815260206004820152602560248201527f4e6f2074656d706c6174657320617661696c61626c6520666f72207468697320604482015264195d995b9d60da1b6064820152608401610661565b6000815142448b876040516020016109ce9493929190938452602084019290925260601b6bffffffffffffffffffffffff19166040830152605482015260740190565b6040516020818303038152906040528051906020012060001c6109f19190611e85565b90506000828281518110610a0757610a07611ea7565b60200260200101519050610a1b8a8661113c565b610a258582611156565b6040518060c00160405280868152602001898152602001856004811115610a4e57610a4e611ace565b815260208082018c905260408083018b9052426060909301929092526000888152600982529190912082518155908201516001820190610a8e9082611f03565b50604082015160028201805460ff19166001836004811115610ab257610ab2611ace565b02179055506060820151600382015560808201516004820190610ad59082611f03565b5060a08201518160050155905050888a6001600160a01b0316867f04599ee20634b817badf2f06ae1928e925de8edf87cd8c70dac8c9f25ec7554887604051610b1e9190611fc3565b60405180910390a4509298975050505050505050565b610b4f83838360405180602001604052806000815250610bd5565b505050565b600061036582610ecc565b60006001600160a01b038216610b8b576040516322718ad960e21b815260006004820152602401610661565b506001600160a01b031660009081526003602052604090205490565b610baf61100d565b610bb960006111a6565b565b60606001805461043390611e1c565b6104ea3383836111f8565b610be084848461063b565b6106c53385858585611297565b6060610365826113c2565b60085460609060008167ffffffffffffffff811115610c1957610c19611b58565b604051908082528060200260200182016040528015610c42578160200160208202803683370190505b5090506000805b83811015610d24576040516331a9108f60e11b8152600481018290523090636352211e90602401602060405180830381865afa925050508015610ca9575060408051601f3d908101601f19168201909252610ca691810190611fd1565b60015b15610d1257876001600160a01b0316816001600160a01b0316148015610cdf575060008281526009602052604090206003015487145b15610d105781848481518110610cf757610cf7611ea7565b602090810291909101015282610d0c81611e6c565b9350505b505b80610d1c81611e6c565b915050610c49565b5060008167ffffffffffffffff811115610d4057610d40611b58565b604051908082528060200260200182016040528015610d69578160200160208202803683370190505b50905060005b82811015610dc057838181518110610d8957610d89611ea7565b6020026020010151828281518110610da357610da3611ea7565b602090810291909101015280610db881611e6c565b915050610d6f565b509695505050505050565b610dd361100d565b6000838152600a6020908152604082208054600181018255908352912001610dfb8382611f03565b50827fa77d98bfb261ea73a3a92dfc83d0028afc567cddcd5ae94626986121a1000dc58383604051610e2e929190611fee565b60405180910390a2505050565b6001600160a01b03918216600090815260056020908152604080832093909416825291909152205460ff1690565b610e7161100d565b6001600160a01b038116610e9b57604051631e4fbdf760e01b815260006004820152602401610661565b610ea4816111a6565b50565b60006001600160e01b03198216632483248360e11b14806103655750610365826114d3565b6000818152600260205260408120546001600160a01b03168061036557604051637e27328960e01b815260048101849052602401610661565b610b4f8383836001611523565b6000828152600260205260408120546001600160a01b0390811690831615610f3f57610f3f818486611629565b6001600160a01b03811615610f7d57610f5c600085600080611523565b6001600160a01b038116600090815260036020526040902080546000190190555b6001600160a01b03851615610fac576001600160a01b0385166000908152600360205260409020805460010190555b60008481526002602052604080822080546001600160a01b0319166001600160a01b0389811691821790925591518793918516917fddf252ad1be2c89b69c2b068fc378daa952ba7f163c4a11628f55a4df523b3ef91a490505b9392505050565b6007546001600160a01b03163314610bb95760405163118cdaa760e01b8152336004820152602401610661565b6000806103e842443360405160200161107893929190928352602083019190915260601b6bffffffffffffffffffffffff1916604082015260540190565b6040516020818303038152906040528051906020012060001c61109b9190611e85565b90506000805b600581101561113257600b60008260048111156110c0576110c0611ace565b60048111156110d1576110d1611ace565b60048111156110e2576110e2611ace565b815260200190815260200160002054826110fc9190612010565b9150818310156111205780600481111561111857611118611ace565b935050505090565b8061112a81611e6c565b9150506110a1565b5060009250505090565b6104ea82826040518060200160405280600081525061168d565b600082815260066020526040902061116e8282611f03565b506040518281527ff8e1a15aba9398e019f0b49df1a4fde98ee17ae345cb5f6b5e2c27f5033e8ce79060200160405180910390a15050565b600780546001600160a01b038381166001600160a01b0319831681179093556040519116919082907f8be0079c531659141344cd1fd0a4f28419497f9722a3daafe3b4186f6b6457e090600090a35050565b6001600160a01b03821661122a57604051630b61174360e31b81526001600160a01b0383166004820152602401610661565b6001600160a01b03838116600081815260056020908152604080832094871680845294825291829020805460ff191686151590811790915591519182527f17307eab39ab6107e8899845ad3d59bd9653f200f220920489ca2b5937696c31910160405180910390a3505050565b6001600160a01b0383163b156113bb57604051630a85bd0160e11b81526001600160a01b0384169063150b7a02906112d9908890889087908790600401612023565b6020604051808303816000875af1925050508015611314575060408051601f3d908101601f1916820190925261131191810190612060565b60015b61137d573d808015611342576040519150601f19603f3d011682016040523d82523d6000602084013e611347565b606091505b50805160000361137557604051633250574960e11b81526001600160a01b0385166004820152602401610661565b805160208201fd5b6001600160e01b03198116630a85bd0160e11b146113b957604051633250574960e11b81526001600160a01b0385166004820152602401610661565b505b5050505050565b60606113cd82610ecc565b50600082815260066020526040812080546113e790611e1c565b80601f016020809104026020016040519081016040528092919081815260200182805461141390611e1c565b80156114605780601f1061143557610100808354040283529160200191611460565b820191906000526020600020905b81548152906001019060200180831161144357829003601f168201915b50505050509050600061147e60408051602081019091526000815290565b90508051600003611490575092915050565b8151156114c25780826040516020016114aa92919061207d565b60405160208183030381529060405292505050919050565b6114cb846116a5565b949350505050565b60006001600160e01b031982166380ac58cd60e01b148061150457506001600160e01b03198216635b5e139f60e01b145b8061036557506301ffc9a760e01b6001600160e01b0319831614610365565b808061153757506001600160a01b03821615155b156115f957600061154784610ecc565b90506001600160a01b038316158015906115735750826001600160a01b0316816001600160a01b031614155b801561158657506115848184610e3b565b155b156115af5760405163a9fbf51f60e01b81526001600160a01b0384166004820152602401610661565b81156115f75783856001600160a01b0316826001600160a01b03167f8c5be1e5ebec7d5bd14f71427d1e84f3dd0314c0f7b2291e5b200ac8c7c3b92560405160405180910390a45b505b5050600090815260046020526040902080546001600160a01b0319166001600160a01b0392909216919091179055565b611634838383611719565b610b4f576001600160a01b03831661166257604051637e27328960e01b815260048101829052602401610661565b60405163177e802f60e01b81526001600160a01b038316600482015260248101829052604401610661565b611697838361177c565b610b4f336000858585611297565b60606116b082610ecc565b5060006116c860408051602081019091526000815290565b905060008151116116e85760405180602001604052806000815250611006565b806116f2846117e1565b60405160200161170392919061207d565b6040516020818303038152906040529392505050565b60006001600160a01b038316158015906114cb5750826001600160a01b0316846001600160a01b0316148061175357506117538484610e3b565b806114cb5750506000908152600460205260409020546001600160a01b03908116911614919050565b6001600160a01b0382166117a657604051633250574960e11b815260006004820152602401610661565b60006117b483836000610f12565b90506001600160a01b03811615610b4f576040516339e3563760e11b815260006004820152602401610661565b606060006117ee83611874565b600101905060008167ffffffffffffffff81111561180e5761180e611b58565b6040519080825280601f01601f191660200182016040528015611838576020820181803683370190505b5090508181016020015b600019016f181899199a1a9b1b9c1cb0b131b232b360811b600a86061a8153600a850494508461184257509392505050565b60008072184f03e93ff9f4daa797ed6e38ed64bf6a1f0160401b83106118b35772184f03e93ff9f4daa797ed6e38ed64bf6a1f0160401b830492506040015b6d04ee2d6d415b85acef810000000083106118df576d04ee2d6d415b85acef8100000000830492506020015b662386f26fc1000083106118fd57662386f26fc10000830492506010015b6305f5e1008310611915576305f5e100830492506008015b612710831061192957612710830492506004015b6064831061193b576064830492506002015b600a83106103655760010192915050565b6001600160e01b031981168114610ea457600080fd5b60006020828403121561197457600080fd5b81356110068161194c565b6000806040838503121561199257600080fd5b50508035926020909101359150565b60005b838110156119bc5781810151838201526020016119a4565b50506000910152565b600081518084526119dd8160208601602086016119a1565b601f01601f19169290920160200192915050565b60208152600061100660208301846119c5565b600060208284031215611a1657600080fd5b5035919050565b6001600160a01b0381168114610ea457600080fd5b60008060408385031215611a4557600080fd5b8235611a5081611a1d565b946020939093013593505050565b803560058110611a6d57600080fd5b919050565b600060208284031215611a8457600080fd5b61100682611a5e565b600080600060608486031215611aa257600080fd5b8335611aad81611a1d565b92506020840135611abd81611a1d565b929592945050506040919091013590565b634e487b7160e01b600052602160045260246000fd5b60058110611b0257634e487b7160e01b600052602160045260246000fd5b9052565b86815260c060208201526000611b1f60c08301886119c5565b611b2c6040840188611ae4565b8560608401528281036080840152611b4481866119c5565b9150508260a0830152979650505050505050565b634e487b7160e01b600052604160045260246000fd5b600067ffffffffffffffff80841115611b8957611b89611b58565b604051601f8501601f19908116603f01168101908282118183101715611bb157611bb1611b58565b81604052809350858152868686011115611bca57600080fd5b858560208301376000602087830101525050509392505050565b600082601f830112611bf557600080fd5b61100683833560208501611b6e565b60008060008060808587031215611c1a57600080fd5b8435611c2581611a1d565b935060208501359250604085013567ffffffffffffffff80821115611c4957600080fd5b611c5588838901611be4565b93506060870135915080821115611c6b57600080fd5b50611c7887828801611be4565b91505092959194509250565b600060208284031215611c9657600080fd5b813561100681611a1d565b60008060408385031215611cb457600080fd5b8235611cbf81611a1d565b915060208301358015158114611cd457600080fd5b809150509250929050565b60008060008060808587031215611cf557600080fd5b8435611d0081611a1d565b93506020850135611d1081611a1d565b925060408501359150606085013567ffffffffffffffff811115611d3357600080fd5b8501601f81018713611d4457600080fd5b611c7887823560208401611b6e565b6020808252825182820181905260009190848201906040850190845b81811015611d8b57835183529284019291840191600101611d6f565b50909695505050505050565b600080600060608486031215611dac57600080fd5b83359250602084013567ffffffffffffffff811115611dca57600080fd5b611dd686828701611be4565b925050611de560408501611a5e565b90509250925092565b60008060408385031215611e0157600080fd5b8235611e0c81611a1d565b91506020830135611cd481611a1d565b600181811c90821680611e3057607f821691505b602082108103611e5057634e487b7160e01b600052602260045260246000fd5b50919050565b634e487b7160e01b600052601160045260246000fd5b600060018201611e7e57611e7e611e56565b5060010190565b600082611ea257634e487b7160e01b600052601260045260246000fd5b500690565b634e487b7160e01b600052603260045260246000fd5b601f821115610b4f57600081815260208120601f850160051c81016020861015611ee45750805b601f850160051c820191505b818110156113b957828155600101611ef0565b815167ffffffffffffffff811115611f1d57611f1d611b58565b611f3181611f2b8454611e1c565b84611ebd565b602080601f831160018114611f665760008415611f4e5750858301515b600019600386901b1c1916600185901b1785556113b9565b600085815260208120601f198616915b82811015611f9557888601518255948401946001909101908401611f76565b5085821015611fb35787850151600019600388901b60f8161c191681555b5050505050600190811b01905550565b602081016103658284611ae4565b600060208284031215611fe357600080fd5b815161100681611a1d565b60408152600061200160408301856119c5565b90506110066020830184611ae4565b8082018082111561036557610365611e56565b6001600160a01b0385811682528416602082015260408101839052608060608201819052600090612056908301846119c5565b9695505050505050565b60006020828403121561207257600080fd5b81516110068161194c565b6000835161208f8184602088016119a1565b8351908301906120a38183602088016119a1565b0194935050505056fea2646970667358221220e66976f5727f0f030f26e422dbbe82d273e52897ef827d362bf052aef972791b64736f6c63430008140033",
  "linkReferences": {},
  "deployedLinkReferences": {}
}