{
  "_format": "hh-sol-artifact-1",
  "contractName": "EventTicketing",
  "sourceName": "contracts/EventTicketing.sol",
  "abi": [
    {
      "inputs": [],
      "stateMutability": "nonpayable",
      "type": "constructor"
    },
    {
      "inputs": [],
      "name": "ERC721EnumerableForbiddenBatchMint",
      "type": "error"
    },
    {
      "inputs": [
        {
          "internalType": "address",
          "name": "sender",
          "type": "address"
        },
        {
          "internalType": "uint256",
          "name": "tokenId",
          "type": "uint256"
        },
        {
          "internalType": "address",
          "name": "owner",
          "type": "address"
        }
      ],
      "name": "ERC721IncorrectOwner",
      "type": "error"
    },
    {
      "inputs": [
        {
          "internalType": "address",
          "name": "operator",
          "type": "address"
        },
        {
          "internalType": "uint256",
          "name": "tokenId",
          "type": "uint256"
        }
      ],
      "name": "ERC721InsufficientApproval",
      "type": "error"
    },
    {
      "inputs": [
        {
          "internalType": "address",
          "name": "approver",
          "type": "address"
        }
      ],
      "name": "ERC721InvalidApprover",
      "type": "error"
    },
    {
      "inputs": [
        {
          "internalType": "address",
          "name": "operator",
          "type": "address"
        }
      ],
      "name": "ERC721InvalidOperator",
      "type": "error"
    },
    {
      "inputs": [
        {
          "internalType": "address",
          "name": "owner",
          "type": "address"
        }
      ],
      "name": "ERC721InvalidOwner",
      "type": "error"
    },
    {
      "inputs": [
        {
          "internalType": "address",
          "name": "receiver",
          "type": "address"
        }
      ],
      "name": "ERC721InvalidReceiver",
      "type": "error"
    },
    {
      "inputs": [
        {
          "internalType": "address",
          "name": "sender",
          "type": "address"
        }
      ],
      "name": "ERC721InvalidSender",
      "type": "error"
    },
    {
      "inputs": [
        {
          "internalType": "uint256",
          "name": "tokenId",
          "type": "uint256"
        }
      ],
      "name": "ERC721NonexistentToken",
      "type": "error"
    },
    {
      "inputs": [
        {
          "internalType": "address",
          "name": "owner",
          "type": "address"
        },
        {
          "internalType": "uint256",
          "name": "index",
          "type": "uint256"
        }
      ],
      "name": "ERC721OutOfBoundsIndex",
      "type": "error"
    },
    {
      "inputs": [
        {
          "internalType": "address",
          "name": "owner",
          "type": "address"
        }
      ],
      "name": "OwnableInvalidOwner",
      "type": "error"
    },
    {
      "inputs": [
        {
          "internalType": "address",
          "name": "account",
          "type": "address"
        }
      ],
      "name": "OwnableUnauthorizedAccount",
      "type": "error"
    },
    {
      "inputs": [],
      "name": "ReentrancyGuardReentrantCall",
      "type": "error"
    },
    {
      "anonymous": false,
      "inputs": [
        {
          "indexed": true,
          "internalType": "address",
          "name": "owner",
          "type": "address"
        },
        {
          "indexed": true,
          "internalType": "address",
          "name": "approved",
          "type": "address"
        },
        {
          "indexed": true,
          "internalType": "uint256",
          "name": "tokenId",
          "type": "uint256"
        }
      ],
      "name": "Approval",
      "type": "event"
    },
    {
      "anonymous": false,
      "inputs": [
        {
          "indexed": true,
          "internalType": "address",
          "name": "owner",
          "type": "address"
        },
        {
          "indexed": true,
          "internalType": "address",
          "name": "operator",
          "type": "address"
        },
        {
          "indexed": false,
          "internalType": "bool",
          "name": "approved",
          "type": "bool"
        }
      ],
      "name": "ApprovalForAll",
      "type": "event"
    },
    {
      "anonymous": false,
      "inputs": [
        {
          "indexed": false,
          "internalType": "uint256",
          "name": "_fromTokenId",
          "type": "uint256"
        },
        {
          "indexed": false,
          "internalType": "uint256",
          "name": "_toTokenId",
          "type": "uint256"
        }
      ],
      "name": "BatchMetadataUpdate",
      "type": "event"
    },
    {
      "anonymous": false,
      "inputs": [
        {
          "indexed": true,
          "internalType": "uint256",
          "name": "eventId",
          "type": "uint256"
        },
        {
          "indexed": true,
          "internalType": "address",
          "name": "claimer",
          "type": "address"
        },
        {
          "indexed": true,
          "internalType": "uint256",
          "name": "rewardId",
          "type": "uint256"
        }
      ],
      "name": "BlindBagClaimed",
      "type": "event"
    },
    {
      "anonymous": false,
      "inputs": [
        {
          "indexed": true,
          "internalType": "uint256",
          "name": "eventId",
          "type": "uint256"
        },
        {
          "indexed": false,
          "internalType": "string",
          "name": "name",
          "type": "string"
        },
        {
          "indexed": true,
          "internalType": "address",
          "name": "organizer",
          "type": "address"
        }
      ],
      "name": "EventCreated",
      "type": "event"
    },
    {
      "anonymous": false,
      "inputs": [
        {
          "indexed": true,
          "internalType": "uint256",
          "name": "eventId",
          "type": "uint256"
        }
      ],
      "name": "EventEnded",
      "type": "event"
    },
    {
      "anonymous": false,
      "inputs": [
        {
          "indexed": false,
          "internalType": "uint256",
          "name": "_tokenId",
          "type": "uint256"
        }
      ],
      "name": "MetadataUpdate",
      "type": "event"
    },
    {
      "anonymous": false,
      "inputs": [
        {
          "indexed": true,
          "internalType": "address",
          "name": "previousOwner",
          "type": "address"
        },
        {
          "indexed": true,
          "internalType": "address",
          "name": "newOwner",
          "type": "address"
        }
      ],
      "name": "OwnershipTransferred",
      "type": "event"
    },
    {
      "anonymous": false,
      "inputs": [
        {
          "indexed": true,
          "internalType": "uint256",
          "name": "eventId",
          "type": "uint256"
        },
        {
          "indexed": true,
          "internalType": "uint256",
          "name": "tierId",
          "type": "uint256"
        },
        {
          "indexed": false,
          "internalType": "uint256",
          "name": "tokenId",
          "type": "uint256"
        },
        {
          "indexed": true,
          "internalType": "address",
          "name": "buyer",
          "type": "address"
        }
      ],
      "name": "TicketPurchased",
      "type": "event"
    },
    {
      "anonymous": false,
      "inputs": [
        {
          "indexed": true,
          "internalType": "uint256",
          "name": "tokenId",
          "type": "uint256"
        },
        {
          "indexed": true,
          "internalType": "uint256",
          "name": "eventId",
          "type": "uint256"
        }
      ],
      "name": "TicketUsed",
      "type": "event"
    },
    {
      "anonymous": false,
      "inputs": [
        {
          "indexed": true,
          "internalType": "uint256",
          "name": "tierId",
          "type": "uint256"
        },
        {
          "indexed": true,
          "internalType": "uint256",
          "name": "eventId",
          "type": "uint256"
        },
        {
          "indexed": false,
          "internalType": "string",
          "name": "name",
          "type": "string"
        },
        {
          "indexed": false,
          "internalType": "uint256",
          "name": "price",
          "type": "uint256"
        }
      ],
      "name": "TierCreated",
      "type": "event"
    },
    {
      "anonymous": false,
      "inputs": [
        {
          "indexed": true,
          "internalType": "address",
          "name": "from",
          "type": "address"
        },
        {
          "indexed": true,
          "internalType": "address",
          "name": "to",
          "type": "address"
        },
        {
          "indexed": true,
          "internalType": "uint256",
          "name": "tokenId",
          "type": "uint256"
        }
      ],
      "name": "Transfer",
      "type": "event"
    },
    {
      "inputs": [
        {
          "internalType": "address",
          "name": "to",
          "type": "address"
        },
        {
          "internalType": "uint256",
          "name": "tokenId",
          "type": "uint256"
        }
      ],
      "name": "approve",
      "outputs": [],
      "stateMutability": "nonpayable",
      "type": "function"
    },
    {
      "inputs": [
        {
          "internalType": "address",
          "name": "owner",
          "type": "address"
        }
      ],
      "name": "balanceOf",
      "outputs": [
        {
          "internalType": "uint256",
          "name": "",
          "type": "uint256"
        }
      ],
      "stateMutability": "view",
      "type": "function"
    },
    {
      "inputs": [
        {
          "internalType": "uint256",
          "name": "",
          "type": "uint256"
        }
      ],
      "name": "blindBagRewards",
      "outputs": [
        {
          "internalType": "uint256",
          "name": "rewardId",
          "type": "uint256"
        },
        {
          "internalType": "uint256",
          "name": "eventId",
          "type": "uint256"
        },
        {
          "internalType": "string",
          "name": "name",
          "type": "string"
        },
        {
          "internalType": "string",
          "name": "metadataUri",
          "type": "string"
        },
        {
          "internalType": "uint256",
          "name": "rarity",
          "type": "uint256"
        },
        {
          "internalType": "bool",
          "name": "isActive",
          "type": "bool"
        }
      ],
      "stateMutability": "view",
      "type": "function"
    },
    {
      "inputs": [
        {
          "internalType": "uint256",
          "name": "_eventId",
          "type": "uint256"
        }
      ],
      "name": "claimBlindBag",
      "outputs": [],
      "stateMutability": "nonpayable",
      "type": "function"
    },
    {
      "inputs": [
        {
          "internalType": "uint256",
          "name": "_eventId",
          "type": "uint256"
        },
        {
          "internalType": "string",
          "name": "_name",
          "type": "string"
        },
        {
          "internalType": "string",
          "name": "_metadataUri",
          "type": "string"
        },
        {
          "internalType": "uint256",
          "name": "_rarity",
          "type": "uint256"
        }
      ],
      "name": "createBlindBagReward",
      "outputs": [
        {
          "internalType": "uint256",
          "name": "",
          "type": "uint256"
        }
      ],
      "stateMutability": "nonpayable",
      "type": "function"
    },
    {
      "inputs": [
        {
          "internalType": "string",
          "name": "_name",
          "type": "string"
        },
        {
          "internalType": "string",
          "name": "_description",
          "type": "string"
        },
        {
          "internalType": "string",
          "name": "_imageUri",
          "type": "string"
        },
        {
          "internalType": "uint256",
          "name": "_startTime",
          "type": "uint256"
        },
        {
          "internalType": "uint256",
          "name": "_endTime",
          "type": "uint256"
        }
      ],
      "name": "createEvent",
      "outputs": [
        {
          "internalType": "uint256",
          "name": "",
          "type": "uint256"
        }
      ],
      "stateMutability": "nonpayable",
      "type": "function"
    },
    {
      "inputs": [
        {
          "internalType": "uint256",
          "name": "_eventId",
          "type": "uint256"
        },
        {
          "internalType": "string",
          "name": "_name",
          "type": "string"
        },
        {
          "internalType": "uint256",
          "name": "_price",
          "type": "uint256"
        },
        {
          "internalType": "uint256",
          "name": "_maxSupply",
          "type": "uint256"
        },
        {
          "internalType": "uint256",
          "name": "_maxPerWallet",
          "type": "uint256"
        },
        {
          "internalType": "string",
          "name": "_metadataUri",
          "type": "string"
        }
      ],
      "name": "createTicketTier",
      "outputs": [
        {
          "internalType": "uint256",
          "name": "",
          "type": "uint256"
        }
      ],
      "stateMutability": "nonpayable",
      "type": "function"
    },
    {
      "inputs": [
        {
          "internalType": "uint256",
          "name": "_eventId",
          "type": "uint256"
        }
      ],
      "name": "endEvent",
      "outputs": [],
      "stateMutability": "nonpayable",
      "type": "function"
    },
    {
      "inputs": [
        {
          "internalType": "uint256",
          "name": "",
          "type": "uint256"
        },
        {
          "internalType": "uint256",
          "name": "",
          "type": "uint256"
        }
      ],
      "name": "eventRewards",
      "outputs": [
        {
          "internalType": "uint256",
          "name": "",
          "type": "uint256"
        }
      ],
      "stateMutability": "view",
      "type": "function"
    },
    {
      "inputs": [
        {
          "internalType": "uint256",
          "name": "",
          "type": "uint256"
        },
        {
          "internalType": "uint256",
          "name": "",
          "type": "uint256"
        }
      ],
      "name": "eventTiers",
      "outputs": [
        {
          "internalType": "uint256",
          "name": "",
          "type": "uint256"
        }
      ],
      "stateMutability": "view",
      "type": "function"
    },
    {
      "inputs": [
        {
          "internalType": "uint256",
          "name": "",
          "type": "uint256"
        }
      ],
      "name": "events",
      "outputs": [
        {
          "internalType": "uint256",
          "name": "eventId",
          "type": "uint256"
        },
        {
          "internalType": "string",
          "name": "name",
          "type": "string"
        },
        {
          "internalType": "string",
          "name": "description",
          "type": "string"
        },
        {
          "internalType": "string",
          "name": "imageUri",
          "type": "string"
        },
        {
          "internalType": "address",
          "name": "organizer",
          "type": "address"
        },
        {
          "internalType": "uint256",
          "name": "startTime",
          "type": "uint256"
        },
        {
          "internalType": "uint256",
          "name": "endTime",
          "type": "uint256"
        },
        {
          "internalType": "bool",
          "name": "isActive",
          "type": "bool"
        },
        {
          "internalType": "bool",
          "name": "hasEnded",
          "type": "bool"
        }
      ],
      "stateMutability": "view",
      "type": "function"
    },
    {
      "inputs": [
        {
          "internalType": "uint256",
          "name": "tokenId",
          "type": "uint256"
        }
      ],
      "name": "getApproved",
      "outputs": [
        {
          "internalType": "address",
          "name": "",
          "type": "address"
        }
      ],
      "stateMutability": "view",
      "type": "function"
    },
    {
      "inputs": [
        {
          "internalType": "uint256",
          "name": "_eventId",
          "type": "uint256"
        }
      ],
      "name": "getEventRewards",
      "outputs": [
        {
          "internalType": "uint256[]",
          "name": "",
          "type": "uint256[]"
        }
      ],
      "stateMutability": "view",
      "type": "function"
    },
    {
      "inputs": [
        {
          "internalType": "uint256",
          "name": "_eventId",
          "type": "uint256"
        }
      ],
      "name": "getEventTiers",
      "outputs": [
        {
          "internalType": "uint256[]",
          "name": "",
          "type": "uint256[]"
        }
      ],
      "stateMutability": "view",
      "type": "function"
    },
    {
      "inputs": [
        {
          "internalType": "address",
          "name": "_user",
          "type": "address"
        },
        {
          "internalType": "uint256",
          "name": "_eventId",
          "type": "uint256"
        }
      ],
      "name": "getUserTickets",
      "outputs": [
        {
          "internalType": "uint256[]",
          "name": "",
          "type": "uint256[]"
        }
      ],
      "stateMutability": "view",
      "type": "function"
    },
    {
      "inputs": [
        {
          "internalType": "address",
          "name": "_user",
          "type": "address"
        },
        {
          "internalType": "uint256",
          "name": "_eventId",
          "type": "uint256"
        }
      ],
      "name": "hasAttendedEvent",
      "outputs": [
        {
          "internalType": "bool",
          "name": "",
          "type": "bool"
        }
      ],
      "stateMutability": "view",
      "type": "function"
    },
    {
      "inputs": [
        {
          "internalType": "address",
          "name": "",
          "type": "address"
        },
        {
          "internalType": "uint256",
          "name": "",
          "type": "uint256"
        }
      ],
      "name": "hasClaimedBlindBag",
      "outputs": [
        {
          "internalType": "bool",
          "name": "",
          "type": "bool"
        }
      ],
      "stateMutability": "view",
      "type": "function"
    },
    {
      "inputs": [
        {
          "internalType": "address",
          "name": "owner",
          "type": "address"
        },
        {
          "internalType": "address",
          "name": "operator",
          "type": "address"
        }
      ],
      "name": "isApprovedForAll",
      "outputs": [
        {
          "internalType": "bool",
          "name": "",
          "type": "bool"
        }
      ],
      "stateMutability": "view",
      "type": "function"
    },
    {
      "inputs": [],
      "name": "name",
      "outputs": [
        {
          "internalType": "string",
          "name": "",
          "type": "string"
        }
      ],
      "stateMutability": "view",
      "type": "function"
    },
    {
      "inputs": [],
      "name": "owner",
      "outputs": [
        {
          "internalType": "address",
          "name": "",
          "type": "address"
        }
      ],
      "stateMutability": "view",
      "type": "function"
    },
    {
      "inputs": [
        {
          "internalType": "uint256",
          "name": "tokenId",
          "type": "uint256"
        }
      ],
      "name": "ownerOf",
      "outputs": [
        {
          "internalType": "address",
          "name": "",
          "type": "address"
        }
      ],
      "stateMutability": "view",
      "type": "function"
    },
    {
      "inputs": [
        {
          "internalType": "uint256",
          "name": "_tierId",
          "type": "uint256"
        },
        {
          "internalType": "uint256",
          "name": "_quantity",
          "type": "uint256"
        }
      ],
      "name": "purchaseTicket",
      "outputs": [],
      "stateMutability": "payable",
      "type": "function"
    },
    {
      "inputs": [],
      "name": "renounceOwnership",
      "outputs": [],
      "stateMutability": "nonpayable",
      "type": "function"
    },
    {
      "inputs": [
        {
          "internalType": "address",
          "name": "from",
          "type": "address"
        },
        {
          "internalType": "address",
          "name": "to",
          "type": "address"
        },
        {
          "internalType": "uint256",
          "name": "tokenId",
          "type": "uint256"
        }
      ],
      "name": "safeTransferFrom",
      "outputs": [],
      "stateMutability": "nonpayable",
      "type": "function"
    },
    {
      "inputs": [
        {
          "internalType": "address",
          "name": "from",
          "type": "address"
        },
        {
          "internalType": "address",
          "name": "to",
          "type": "address"
        },
        {
          "internalType": "uint256",
          "name": "tokenId",
          "type": "uint256"
        },
        {
          "internalType": "bytes",
          "name": "data",
          "type": "bytes"
        }
      ],
      "name": "safeTransferFrom",
      "outputs": [],
      "stateMutability": "nonpayable",
      "type": "function"
    },
    {
      "inputs": [
        {
          "internalType": "address",
          "name": "operator",
          "type": "address"
        },
        {
          "internalType": "bool",
          "name": "approved",
          "type": "bool"
        }
      ],
      "name": "setApprovalForAll",
      "outputs": [],
      "stateMutability": "nonpayable",
      "type": "function"
    },
    {
      "inputs": [
        {
          "internalType": "bytes4",
          "name": "interfaceId",
          "type": "bytes4"
        }
      ],
      "name": "supportsInterface",
      "outputs": [
        {
          "internalType": "bool",
          "name": "",
          "type": "bool"
        }
      ],
      "stateMutability": "view",
      "type": "function"
    },
    {
      "inputs": [],
      "name": "symbol",
      "outputs": [
        {
          "internalType": "string",
          "name": "",
          "type": "string"
        }
      ],
      "stateMutability": "view",
      "type": "function"
    },
    {
      "inputs": [
        {
          "internalType": "uint256",
          "name": "",
          "type": "uint256"
        }
      ],
      "name": "ticketTiers",
      "outputs": [
        {
          "internalType": "uint256",
          "name": "tierId",
          "type": "uint256"
        },
        {
          "internalType": "uint256",
          "name": "eventId",
          "type": "uint256"
        },
        {
          "internalType": "string",
          "name": "name",
          "type": "string"
        },
        {
          "internalType": "uint256",
          "name": "price",
          "type": "uint256"
        },
        {
          "internalType": "uint256",
          "name": "maxSupply",
          "type": "uint256"
        },
        {
          "internalType": "uint256",
          "name": "currentSupply",
          "type": "uint256"
        },
        {
          "internalType": "uint256",
          "name": "maxPerWallet",
          "type": "uint256"
        },
        {
          "internalType": "string",
          "name": "metadataUri",
          "type": "string"
        },
        {
          "internalType": "bool",
          "name": "isActive",
          "type": "bool"
        }
      ],
      "stateMutability": "view",
      "type": "function"
    },
    {
      "inputs": [
        {
          "internalType": "uint256",
          "name": "",
          "type": "uint256"
        }
      ],
      "name": "tickets",
      "outputs": [
        {
          "internalType": "uint256",
          "name": "tokenId",
          "type": "uint256"
        },
        {
          "internalType": "uint256",
          "name": "eventId",
          "type": "uint256"
        },
        {
          "internalType": "uint256",
          "name": "tierId",
          "type": "uint256"
        },
        {
          "internalType": "address",
          "name": "owner",
          "type": "address"
        },
        {
          "internalType": "bool",
          "name": "isUsed",
          "type": "bool"
        },
        {
          "internalType": "uint256",
          "name": "purchaseTime",
          "type": "uint256"
        }
      ],
      "stateMutability": "view",
      "type": "function"
    },
    {
      "inputs": [
        {
          "internalType": "uint256",
          "name": "index",
          "type": "uint256"
        }
      ],
      "name": "tokenByIndex",
      "outputs": [
        {
          "internalType": "uint256",
          "name": "",
          "type": "uint256"
        }
      ],
      "stateMutability": "view",
      "type": "function"
    },
    {
      "inputs": [
        {
          "internalType": "address",
          "name": "owner",
          "type": "address"
        },
        {
          "internalType": "uint256",
          "name": "index",
          "type": "uint256"
        }
      ],
      "name": "tokenOfOwnerByIndex",
      "outputs": [
        {
          "internalType": "uint256",
          "name": "",
          "type": "uint256"
        }
      ],
      "stateMutability": "view",
      "type": "function"
    },
    {
      "inputs": [
        {
          "internalType": "uint256",
          "name": "tokenId",
          "type": "uint256"
        }
      ],
      "name": "tokenURI",
      "outputs": [
        {
          "internalType": "string",
          "name": "",
          "type": "string"
        }
      ],
      "stateMutability": "view",
      "type": "function"
    },
    {
      "inputs": [],
      "name": "totalSupply",
      "outputs": [
        {
          "internalType": "uint256",
          "name": "",
          "type": "uint256"
        }
      ],
      "stateMutability": "view",
      "type": "function"
    },
    {
      "inputs": [
        {
          "internalType": "address",
          "name": "from",
          "type": "address"
        },
        {
          "internalType": "address",
          "name": "to",
          "type": "address"
        },
        {
          "internalType": "uint256",
          "name": "tokenId",
          "type": "uint256"
        }
      ],
      "name": "transferFrom",
      "outputs": [],
      "stateMutability": "nonpayable",
      "type": "function"
    },
    {
      "inputs": [
        {
          "internalType": "address",
          "name": "newOwner",
          "type": "address"
        }
      ],
      "name": "transferOwnership",
      "outputs": [],
      "stateMutability": "nonpayable",
      "type": "function"
    },
    {
      "inputs": [
        {
          "internalType": "uint256",
          "name": "_tokenId",
          "type": "uint256"
        }
      ],
      "name": "useTicket",
      "outputs": [],
      "stateMutability": "nonpayable",
      "type": "function"
    },
    {
      "inputs": [
        {
          "internalType": "address",
          "name": "",
          "type": "address"
        },
        {
          "internalType": "uint256",
          "name": "",
          "type": "uint256"
        }
      ],
      "name": "userOwnedTickets",
      "outputs": [
        {
          "internalType": "uint256",
          "name": "",
          "type": "uint256"
        }
      ],
      "stateMutability": "view",
      "type": "function"
    },
    {
      "inputs": [
        {
          "internalType": "address",
          "name": "",
          "type": "address"
        },
        {
          "internalType": "uint256",
          "name": "",
          "type": "uint256"
        }
      ],
      "name": "walletTierPurchases",
      "outputs": [
        {
          "internalType": "uint256",
          "name": "",
          "type": "uint256"
        }
      ],
      "stateMutability": "view",
      "type": "function"
    }
  ],
  "bytecode": "0x60806040523480156200001157600080fd5b50336040518060400160405280600b81526020016a115d995b9d151a58dad95d60aa1b81525060405180604001604052806004815260200163115512d560e21b8152508160009081620000659190620001b4565b506001620000748282620001b4565b5050506001600160a01b038116620000a657604051631e4fbdf760e01b81526000600482015260240160405180910390fd5b620000b181620000bd565b506001600c5562000280565b600b80546001600160a01b038381166001600160a01b0319831681179093556040519116919082907f8be0079c531659141344cd1fd0a4f28419497f9722a3daafe3b4186f6b6457e090600090a35050565b634e487b7160e01b600052604160045260246000fd5b600181811c908216806200013a57607f821691505b6020821081036200015b57634e487b7160e01b600052602260045260246000fd5b50919050565b601f821115620001af57600081815260208120601f850160051c810160208610156200018a5750805b601f850160051c820191505b81811015620001ab5782815560010162000196565b5050505b505050565b81516001600160401b03811115620001d057620001d06200010f565b620001e881620001e1845462000125565b8462000161565b602080601f831160018114620002205760008415620002075750858301515b600019600386901b1c1916600185901b178555620001ab565b600085815260208120601f198616915b82811015620002515788860151825594840194600190910190840162000230565b5085821015620002705787850151600019600388901b60f8161c191681555b5050505050600190811b01905550565b613c3080620002906000396000f3fe6080604052600436106102305760003560e01c806370a082311161012e578063b88d4fde116100ab578063e985e9c51161006f578063e985e9c514610774578063ebd9f5be14610794578063f050f5bb146107b4578063f2fde38b146107d4578063f5f00d84146107f457600080fd5b8063b88d4fde146106e1578063bd8d6e3f14610701578063bdbbb0cb14610721578063c87b56dd14610734578063d860625a1461075457600080fd5b80638da5cb5b116100f25780638da5cb5b146106215780639236afca1461063f57806395d89b4114610674578063a22cb46514610689578063b242fa21146106a957600080fd5b806370a082311461058c578063715018a6146105ac5780637d51d214146105c1578063814058be146105e15780638920dd141461060157600080fd5b8063330a347b116101bc578063499d9b3f11610180578063499d9b3f1461044c5780634f6ccce71461047957806350b44712146104995780636023ac83146105315780636352211e1461056c57600080fd5b8063330a347b1461039a578063356fbdb8146103ba578063398909ff146103da5780633b3f42a5146103fa57806342842e0e1461042c57600080fd5b80630b791430116102035780630b791430146102e657806318160ddd1461031b57806323b872dd1461033a578063266064481461035a5780632f745c591461037a57600080fd5b806301ffc9a71461023557806306fdde031461026a578063081812fc1461028c578063095ea7b3146102c4575b600080fd5b34801561024157600080fd5b50610255610250366004613347565b610814565b60405190151581526020015b60405180910390f35b34801561027657600080fd5b5061027f610825565b60405161026191906133b4565b34801561029857600080fd5b506102ac6102a73660046133c7565b6108b7565b6040516001600160a01b039091168152602001610261565b3480156102d057600080fd5b506102e46102df3660046133f5565b6108e0565b005b3480156102f257600080fd5b506103066103013660046133c7565b6108ef565b60405161026199989796959493929190613421565b34801561032757600080fd5b506008545b604051908152602001610261565b34801561034657600080fd5b506102e461035536600461349e565b610adf565b34801561036657600080fd5b506102e46103753660046133c7565b610b6f565b34801561038657600080fd5b5061032c6103953660046133f5565b610d2d565b3480156103a657600080fd5b506102e46103b53660046133c7565b610d92565b3480156103c657600080fd5b506102e46103d53660046133c7565b610e9b565b3480156103e657600080fd5b5061032c6103f53660046133f5565b6113d2565b34801561040657600080fd5b5061041a6104153660046133c7565b611403565b604051610261969594939291906134df565b34801561043857600080fd5b506102e461044736600461349e565b61154c565b34801561045857600080fd5b5061046c6104673660046133c7565b61156c565b604051610261919061352b565b34801561048557600080fd5b5061032c6104943660046133c7565b6115ce565b3480156104a557600080fd5b506104f96104b43660046133c7565b601160205260009081526040902080546001820154600283015460038401546004909401549293919290916001600160a01b03811691600160a01b90910460ff169086565b604080519687526020870195909552938501929092526001600160a01b031660608401521515608083015260a082015260c001610261565b34801561053d57600080fd5b5061025561054c3660046133f5565b601760209081526000928352604080842090915290825290205460ff1681565b34801561057857600080fd5b506102ac6105873660046133c7565b611627565b34801561059857600080fd5b5061032c6105a7366004613563565b611632565b3480156105b857600080fd5b506102e461167a565b3480156105cd57600080fd5b5061046c6105dc3660046133c7565b61168e565b3480156105ed57600080fd5b5061046c6105fc3660046133f5565b6116ee565b34801561060d57600080fd5b5061032c61061c366004613580565b6118ea565b34801561062d57600080fd5b50600b546001600160a01b03166102ac565b34801561064b57600080fd5b5061065f61065a3660046133c7565b611906565b604051610261999897969594939291906135a2565b34801561068057600080fd5b5061027f611a60565b34801561069557600080fd5b506102e46106a4366004613608565b611a6f565b3480156106b557600080fd5b5061032c6106c43660046133f5565b601660209081526000928352604080842090915290825290205481565b3480156106ed57600080fd5b506102e46106fc3660046136d2565b611a7a565b34801561070d57600080fd5b5061025561071c3660046133f5565b611a92565b6102e461072f366004613580565b611bc4565b34801561074057600080fd5b5061027f61074f3660046133c7565b612015565b34801561076057600080fd5b5061032c61076f366004613772565b612020565b34801561078057600080fd5b5061025561078f3660046137e7565b6121d4565b3480156107a057600080fd5b5061032c6107af366004613815565b612202565b3480156107c057600080fd5b5061032c6107cf366004613580565b612486565b3480156107e057600080fd5b506102e46107ef366004613563565b6124a2565b34801561080057600080fd5b5061032c61080f36600461389e565b6124dd565b600061081f826126e6565b92915050565b60606000805461083490613938565b80601f016020809104026020016040519081016040528092919081815260200182805461086090613938565b80156108ad5780601f10610882576101008083540402835291602001916108ad565b820191906000526020600020905b81548152906001019060200180831161089057829003601f168201915b5050505050905090565b60006108c28261270b565b506000828152600460205260409020546001600160a01b031661081f565b6108eb828233612744565b5050565b600f602052600090815260409020805460018201805491929161091190613938565b80601f016020809104026020016040519081016040528092919081815260200182805461093d90613938565b801561098a5780601f1061095f5761010080835404028352916020019161098a565b820191906000526020600020905b81548152906001019060200180831161096d57829003601f168201915b50505050509080600201805461099f90613938565b80601f01602080910402602001604051908101604052809291908181526020018280546109cb90613938565b8015610a185780601f106109ed57610100808354040283529160200191610a18565b820191906000526020600020905b8154815290600101906020018083116109fb57829003601f168201915b505050505090806003018054610a2d90613938565b80601f0160208091040260200160405190810160405280929190818152602001828054610a5990613938565b8015610aa65780601f10610a7b57610100808354040283529160200191610aa6565b820191906000526020600020905b815481529060010190602001808311610a8957829003601f168201915b5050505060048301546005840154600685015460079095015493946001600160a01b039092169390925060ff8082169161010090041689565b6001600160a01b038216610b0e57604051633250574960e11b8152600060048201526024015b60405180910390fd5b6000610b1b838333612751565b9050836001600160a01b0316816001600160a01b031614610b69576040516364283d7b60e01b81526001600160a01b0380861660048301526024820184905282166044820152606401610b05565b50505050565b600081815260116020908152604080832060018101548452600f90925290912060048101546001600160a01b03163314610bf75760405162461bcd60e51b8152602060048201526024808201527f4f6e6c79206576656e74206f7267616e697a65722063616e20757365207469636044820152636b65747360e01b6064820152608401610b05565b6003820154600160a01b900460ff1615610c495760405162461bcd60e51b8152602060048201526013602482015272151a58dad95d08185b1c9958591e481d5cd959606a1b6044820152606401610b05565b8060050154421015610c9d5760405162461bcd60e51b815260206004820152601960248201527f4576656e7420686173206e6f74207374617274656420796574000000000000006044820152606401610b05565b8060060154421115610ce35760405162461bcd60e51b815260206004820152600f60248201526e115d995b9d081a185cc8195b991959608a1b6044820152606401610b05565b60038201805460ff60a01b1916600160a01b179055600182015460405184907fad0a02848182e7d3a9bb0ae2cc919bdef92f9da6b0a45ced3656cf5443212ede90600090a3505050565b6000610d3883611632565b8210610d695760405163295f44f760e21b81526001600160a01b038416600482015260248101839052604401610b05565b506001600160a01b03919091166000908152600660209081526040808320938352929052205490565b6000818152600f6020526040902060048101546001600160a01b03163314610e075760405162461bcd60e51b815260206004820152602260248201527f4f6e6c79206576656e74206f7267616e697a65722063616e20656e64206576656044820152611b9d60f21b6064820152608401610b05565b8060060154421015610e5b5760405162461bcd60e51b815260206004820152601a60248201527f4576656e7420656e642074696d65206e6f7420726561636865640000000000006044820152606401610b05565b60078101805461ff00191661010017905560405182907f60ec355296fe18fa9035fd377bd45120aad5d6ca18619a7b72cbd175771eca0a90600090a25050565b610ea3612766565b6000818152600f602052604090206007810154610100900460ff16610f0a5760405162461bcd60e51b815260206004820152601760248201527f4576656e7420686173206e6f7420656e646564207965740000000000000000006044820152606401610b05565b33600090815260176020908152604080832085845290915290205460ff1615610f865760405162461bcd60e51b815260206004820152602860248201527f416c726561647920636c61696d656420626c696e642062616720666f722074686044820152671a5cc8195d995b9d60c21b6064820152608401610b05565b610f903383611a92565b610fe65760405162461bcd60e51b815260206004820152602160248201527f4d757374206861766520617474656e646564206576656e7420746f20636c61696044820152606d60f81b6064820152608401610b05565b3360008181526017602090815260408083208684528252808320805460ff1916600117905551919260649261104b92429244929091899101938452602084019290925260601b6bffffffffffffffffffffffff19166040830152605482015260740190565b6040516020818303038152906040528051906020012060001c61106e9190613972565b6110799060016139aa565b6000848152601560209081526040808320805482518185028101850190935280835294955092939092918301828280156110d257602002820191906000526020600020905b8154815260200190600101908083116110be575b505050505090506000805b82518110156112c3576000601260008584815181106110fe576110fe6139bd565b602002602001015181526020019081526020016000206040518060c0016040529081600082015481526020016001820154815260200160028201805461114390613938565b80601f016020809104026020016040519081016040528092919081815260200182805461116f90613938565b80156111bc5780601f10611191576101008083540402835291602001916111bc565b820191906000526020600020905b81548152906001019060200180831161119f57829003601f168201915b505050505081526020016003820180546111d590613938565b80601f016020809104026020016040519081016040528092919081815260200182805461120190613938565b801561124e5780601f106112235761010080835404028352916020019161124e565b820191906000526020600020905b81548152906001019060200180831161123157829003601f168201915b50505091835250506004820154602082015260059091015460ff16151560409091015260a08101519091508015611289575080608001518511155b156112b0578382815181106112a0576112a06139bd565b60200260200101519250506112c3565b50806112bb816139d3565b9150506110dd565b5080156113c157600d805490819060006112dc836139d3565b91905055506112eb3382612790565b6000828152601260205260409020600301805461139091839161130d90613938565b80601f016020809104026020016040519081016040528092919081815260200182805461133990613938565b80156113865780601f1061135b57610100808354040283529160200191611386565b820191906000526020600020905b81548152906001019060200180831161136957829003601f168201915b50505050506127aa565b6040518290339088907ffe4a02fbe5e5da45535bd2cacd4453a5361c44ebd66639f0b2078fc9ffe0422a90600090a4505b505050506113cf6001600c55565b50565b601360205281600052604060002081815481106113ee57600080fd5b90600052602060002001600091509150505481565b6012602052600090815260409020805460018201546002830180549293919261142b90613938565b80601f016020809104026020016040519081016040528092919081815260200182805461145790613938565b80156114a45780601f10611479576101008083540402835291602001916114a4565b820191906000526020600020905b81548152906001019060200180831161148757829003601f168201915b5050505050908060030180546114b990613938565b80601f01602080910402602001604051908101604052809291908181526020018280546114e590613938565b80156115325780601f1061150757610100808354040283529160200191611532565b820191906000526020600020905b81548152906001019060200180831161151557829003601f168201915b50505050600483015460059093015491929160ff16905086565b61156783838360405180602001604052806000815250611a7a565b505050565b6000818152601560209081526040918290208054835181840281018401909452808452606093928301828280156115c257602002820191906000526020600020905b8154815260200190600101908083116115ae575b50505050509050919050565b60006115d960085490565b82106116025760405163295f44f760e21b81526000600482015260248101839052604401610b05565b60088281548110611615576116156139bd565b90600052602060002001549050919050565b600061081f8261270b565b60006001600160a01b03821661165e576040516322718ad960e21b815260006004820152602401610b05565b506001600160a01b031660009081526003602052604090205490565b6116826127fa565b61168c6000612827565b565b6000818152601460209081526040918290208054835181840281018401909452808452606093928301828280156115c257602002820191906000526020600020908154815260200190600101908083116115ae5750505050509050919050565b6001600160a01b038216600090815260136020908152604080832080548251818502810185019093528083526060949383018282801561174d57602002820191906000526020600020905b815481526020019060010190808311611739575b505050505090506000805b82518110156117e6576000838281518110611775576117756139bd565b602002602001015190508560116000838152602001908152602001600020600101541480156117c057506000818152601160205260409020600301546001600160a01b038881169116145b156117d357826117cf816139d3565b9350505b50806117de816139d3565b915050611758565b5060008167ffffffffffffffff81111561180257611802613646565b60405190808252806020026020018201604052801561182b578160200160208202803683370190505b5090506000805b84518110156118de57600085828151811061184f5761184f6139bd565b6020026020010151905087601160008381526020019081526020016000206001015414801561189a57506000818152601160205260409020600301546001600160a01b038a81169116145b156118cb57808484815181106118b2576118b26139bd565b6020908102919091010152826118c7816139d3565b9350505b50806118d6816139d3565b915050611832565b50909695505050505050565b601460205281600052604060002081815481106113ee57600080fd5b6010602052600090815260409020805460018201546002830180549293919261192e90613938565b80601f016020809104026020016040519081016040528092919081815260200182805461195a90613938565b80156119a75780601f1061197c576101008083540402835291602001916119a7565b820191906000526020600020905b81548152906001019060200180831161198a57829003601f168201915b5050505050908060030154908060040154908060050154908060060154908060070180546119d490613938565b80601f0160208091040260200160405190810160405280929190818152602001828054611a0090613938565b8015611a4d5780601f10611a2257610100808354040283529160200191611a4d565b820191906000526020600020905b815481529060010190602001808311611a3057829003601f168201915b5050506008909301549192505060ff1689565b60606001805461083490613938565b6108eb338383612879565b611a85848484610adf565b610b693385858585612918565b600d54600090815b81811015611bb9576040516331a9108f60e11b8152600481018290523090636352211e90602401602060405180830381865afa925050508015611afa575060408051601f3d908101601f19168201909252611af7918101906139ec565b60015b15611ba757600082815260116020908152604091829020825160c08101845281548152600182015492810183905260028201549381019390935260038101546001600160a01b0381166060850152600160a01b900460ff16151560808401526004015460a083015286148015611b855750866001600160a01b031681606001516001600160a01b0316145b8015611b92575080608001515b15611ba457600194505050505061081f565b50505b80611bb1816139d3565b915050611a9a565b506000949350505050565b611bcc612766565b6000828152601060205260409020600881015460ff16611c235760405162461bcd60e51b815260206004820152601260248201527154696572206973206e6f742061637469766560701b6044820152606401610b05565b60008211611c7e5760405162461bcd60e51b815260206004820152602260248201527f5175616e74697479206d7573742062652067726561746572207468616e207a65604482015261726f60f01b6064820152608401610b05565b8060040154828260050154611c9391906139aa565b1115611cd55760405162461bcd60e51b81526020600482015260116024820152704e6f7420656e6f75676820737570706c7960781b6044820152606401610b05565b6006810154336000908152601660209081526040808320878452909152902054611d009084906139aa565b1115611d4e5760405162461bcd60e51b815260206004820152601860248201527f45786365656473207065722077616c6c6574206c696d697400000000000000006044820152606401610b05565b818160030154611d5e9190613a09565b3414611da05760405162461bcd60e51b8152602060048201526011602482015270125b98dbdc9c9958dd081c185e5b595b9d607a1b6044820152606401610b05565b60018101546000908152600f60205260409020600781015460ff16611dfd5760405162461bcd60e51b81526020600482015260136024820152724576656e74206973206e6f742061637469766560681b6044820152606401610b05565b80600601544210611e425760405162461bcd60e51b815260206004820152600f60248201526e115d995b9d081a185cc8195b991959608a1b6044820152606401610b05565b60005b83811015611f8457600d80549081906000611e5f836139d3565b9190505550611e6e3382612790565b611e818185600701805461130d90613938565b6040805160c0810182528281526001808701805460208085019182528486018c815233606087018181526000608089018181524260a08b019081528c8352601187528b83209a518b5596518a8a0155935160028a0155905160038901805494511515600160a01b026001600160a81b03199095166001600160a01b03929092169190911793909317909255925160049096019590955581855260138152858520805494850181558552909320909101849055549151909188917ff4810f4af7d42912f869f8efa162c4287b2dbce7d45c8777141a2c01d68bc0af90611f699086815260200190565b60405180910390a45080611f7c816139d3565b915050611e45565b5082826005016000828254611f9991906139aa565b909155505033600090815260166020908152604080832087845290915281208054859290611fc89084906139aa565b909155505060048101546040516001600160a01b03909116903480156108fc02916000818181858888f19350505050158015612008573d6000803e3d6000fd5b5050506108eb6001600c55565b606061081f82612a43565b6000848152600f60205260408120600401546001600160a01b031633146120995760405162461bcd60e51b815260206004820152602760248201527f4f6e6c79206576656e74206f7267616e697a65722063616e20637265617465206044820152667265776172647360c81b6064820152608401610b05565b600182101580156120ab575060648211155b6120f75760405162461bcd60e51b815260206004820152601c60248201527f526172697479206d757374206265206265747765656e20312d313030000000006044820152606401610b05565b600d80549081906000612109836139d3565b90915550506040805160c08101825282815260208082018981528284018981526060840189905260808401889052600160a0850181905260008781526012909452949092208351815590519381019390935551909190600282019061216e9082613a66565b50606082015160038201906121839082613a66565b506080820151600482015560a0909101516005909101805460ff1916911515919091179055600095865260156020908152604087208054600181018255908852962090950185905550929392505050565b6001600160a01b03918216600090815260056020908152604080832093909416825291909152205460ff1690565b6000868152600f60205260408120600401546001600160a01b031633146122795760405162461bcd60e51b815260206004820152602560248201527f4f6e6c79206576656e74206f7267616e697a65722063616e2063726561746520604482015264746965727360d81b6064820152608401610b05565b6000878152600f602052604090206007015460ff166122d05760405162461bcd60e51b81526020600482015260136024820152724576656e74206973206e6f742061637469766560681b6044820152606401610b05565b6000841161232a5760405162461bcd60e51b815260206004820152602160248201527f4d617820737570706c79206d7573742062652067726561746572207468616e206044820152600360fc1b6064820152608401610b05565b600d8054908190600061233c836139d3565b9190505550604051806101200160405280828152602001898152602001888152602001878152602001868152602001600081526020018581526020018481526020016001151581525060106000838152602001908152602001600020600082015181600001556020820151816001015560408201518160020190816123c19190613a66565b50606082015160038201556080820151600482015560a0820151600582015560c0820151600682015560e082015160078201906123fe9082613a66565b5061010091909101516008909101805460ff191691151591909117905560008881526014602090815260408083208054600181018255908452919092200182905551889082907f4baf285bf2d939e1e30f6addbf03315085042274c5703fc126a1dde8ae20fe3a90612473908b908b90613b26565b60405180910390a3979650505050505050565b601560205281600052604060002081815481106113ee57600080fd5b6124aa6127fa565b6001600160a01b0381166124d457604051631e4fbdf760e01b815260006004820152602401610b05565b6113cf81612827565b600042831161252e5760405162461bcd60e51b815260206004820181905260248201527f53746172742074696d65206d75737420626520696e20746865206675747572656044820152606401610b05565b8282116125875760405162461bcd60e51b815260206004820152602160248201527f456e642074696d65206d7573742062652061667465722073746172742074696d6044820152606560f81b6064820152608401610b05565b600e80549081906000612599836139d3565b9091555050604080516101208101825282815260208082018a81528284018a90526060830189905233608084015260a0830188905260c08301879052600160e0840181905260006101008501819052868152600f90935293909120825181559051919290919082019061260c9082613a66565b50604082015160028201906126219082613a66565b50606082015160038201906126369082613a66565b5060808201516004820180546001600160a01b0319166001600160a01b0390921691909117905560a0820151600582015560c0820151600682015560e0820151600790910180546101009384015161ffff1990911692151561ff00191692909217911515909202179055604051339082907f40fb05b814a900c99fa0a76d919dfdeaf3389540e4ca70f97ba40ca9a38f3797906126d4908b906133b4565b60405180910390a39695505050505050565b60006001600160e01b03198216632483248360e11b148061081f575061081f82612b4c565b6000818152600260205260408120546001600160a01b03168061081f57604051637e27328960e01b815260048101849052602401610b05565b6115678383836001612b71565b600061275e848484612c77565b949350505050565b6002600c540361278957604051633ee5aeb560e01b815260040160405180910390fd5b6002600c55565b6108eb828260405180602001604052806000815250612d44565b6000828152600a602052604090206127c28282613a66565b506040518281527ff8e1a15aba9398e019f0b49df1a4fde98ee17ae345cb5f6b5e2c27f5033e8ce79060200160405180910390a15050565b600b546001600160a01b0316331461168c5760405163118cdaa760e01b8152336004820152602401610b05565b600b80546001600160a01b038381166001600160a01b0319831681179093556040519116919082907f8be0079c531659141344cd1fd0a4f28419497f9722a3daafe3b4186f6b6457e090600090a35050565b6001600160a01b0382166128ab57604051630b61174360e31b81526001600160a01b0383166004820152602401610b05565b6001600160a01b03838116600081815260056020908152604080832094871680845294825291829020805460ff191686151590811790915591519182527f17307eab39ab6107e8899845ad3d59bd9653f200f220920489ca2b5937696c31910160405180910390a3505050565b6001600160a01b0383163b15612a3c57604051630a85bd0160e11b81526001600160a01b0384169063150b7a029061295a908890889087908790600401613b48565b6020604051808303816000875af1925050508015612995575060408051601f3d908101601f1916820190925261299291810190613b85565b60015b6129fe573d8080156129c3576040519150601f19603f3d011682016040523d82523d6000602084013e6129c8565b606091505b5080516000036129f657604051633250574960e11b81526001600160a01b0385166004820152602401610b05565b805160208201fd5b6001600160e01b03198116630a85bd0160e11b14612a3a57604051633250574960e11b81526001600160a01b0385166004820152602401610b05565b505b5050505050565b6060612a4e8261270b565b506000828152600a602052604081208054612a6890613938565b80601f0160208091040260200160405190810160405280929190818152602001828054612a9490613938565b8015612ae15780601f10612ab657610100808354040283529160200191612ae1565b820191906000526020600020905b815481529060010190602001808311612ac457829003601f168201915b505050505090506000612aff60408051602081019091526000815290565b90508051600003612b11575092915050565b815115612b43578082604051602001612b2b929190613ba2565b60405160208183030381529060405292505050919050565b61275e84612d5c565b60006001600160e01b0319821663780e9d6360e01b148061081f575061081f82612dd1565b8080612b8557506001600160a01b03821615155b15612c47576000612b958461270b565b90506001600160a01b03831615801590612bc15750826001600160a01b0316816001600160a01b031614155b8015612bd45750612bd281846121d4565b155b15612bfd5760405163a9fbf51f60e01b81526001600160a01b0384166004820152602401610b05565b8115612c455783856001600160a01b0316826001600160a01b03167f8c5be1e5ebec7d5bd14f71427d1e84f3dd0314c0f7b2291e5b200ac8c7c3b92560405160405180910390a45b505b5050600090815260046020526040902080546001600160a01b0319166001600160a01b0392909216919091179055565b600080612c85858585612e21565b90506001600160a01b038116612ce257612cdd84600880546000838152600960205260408120829055600182018355919091527ff3f7a9fe364faab93b216da50a3214154f22a0a2b415b23a84c8169e8b636ee30155565b612d05565b846001600160a01b0316816001600160a01b031614612d0557612d058185612f1a565b6001600160a01b038516612d2157612d1c84612f9b565b61275e565b846001600160a01b0316816001600160a01b03161461275e5761275e858561304a565b612d4e838361309a565b611567336000858585612918565b6060612d678261270b565b506000612d7f60408051602081019091526000815290565b90506000815111612d9f5760405180602001604052806000815250612dca565b80612da9846130ff565b604051602001612dba929190613ba2565b6040516020818303038152906040525b9392505050565b60006001600160e01b031982166380ac58cd60e01b1480612e0257506001600160e01b03198216635b5e139f60e01b145b8061081f57506301ffc9a760e01b6001600160e01b031983161461081f565b6000828152600260205260408120546001600160a01b0390811690831615612e4e57612e4e818486613192565b6001600160a01b03811615612e8c57612e6b600085600080612b71565b6001600160a01b038116600090815260036020526040902080546000190190555b6001600160a01b03851615612ebb576001600160a01b0385166000908152600360205260409020805460010190555b60008481526002602052604080822080546001600160a01b0319166001600160a01b0389811691821790925591518793918516917fddf252ad1be2c89b69c2b068fc378daa952ba7f163c4a11628f55a4df523b3ef91a4949350505050565b6000612f2583611632565b6000838152600760209081526040808320546001600160a01b0388168452600690925290912091925090818314612f7c57600083815260208281526040808320548584528184208190558352600790915290208290555b6000938452600760209081526040808620869055938552525081205550565b600854600090612fad90600190613bd1565b60008381526009602052604081205460088054939450909284908110612fd557612fd56139bd565b906000526020600020015490508060088381548110612ff657612ff66139bd565b600091825260208083209091019290925582815260099091526040808220849055858252812055600880548061302e5761302e613be4565b6001900381819060005260206000200160009055905550505050565b6000600161305784611632565b6130619190613bd1565b6001600160a01b039093166000908152600660209081526040808320868452825280832085905593825260079052919091209190915550565b6001600160a01b0382166130c457604051633250574960e11b815260006004820152602401610b05565b60006130d283836000612751565b90506001600160a01b03811615611567576040516339e3563760e11b815260006004820152602401610b05565b6060600061310c836131f6565b600101905060008167ffffffffffffffff81111561312c5761312c613646565b6040519080825280601f01601f191660200182016040528015613156576020820181803683370190505b5090508181016020015b600019016f181899199a1a9b1b9c1cb0b131b232b360811b600a86061a8153600a850494508461316057509392505050565b61319d8383836132ce565b611567576001600160a01b0383166131cb57604051637e27328960e01b815260048101829052602401610b05565b60405163177e802f60e01b81526001600160a01b038316600482015260248101829052604401610b05565b60008072184f03e93ff9f4daa797ed6e38ed64bf6a1f0160401b83106132355772184f03e93ff9f4daa797ed6e38ed64bf6a1f0160401b830492506040015b6d04ee2d6d415b85acef81000000008310613261576d04ee2d6d415b85acef8100000000830492506020015b662386f26fc10000831061327f57662386f26fc10000830492506010015b6305f5e1008310613297576305f5e100830492506008015b61271083106132ab57612710830492506004015b606483106132bd576064830492506002015b600a831061081f5760010192915050565b60006001600160a01b0383161580159061275e5750826001600160a01b0316846001600160a01b03161480613308575061330884846121d4565b8061275e5750506000908152600460205260409020546001600160a01b03908116911614919050565b6001600160e01b0319811681146113cf57600080fd5b60006020828403121561335957600080fd5b8135612dca81613331565b60005b8381101561337f578181015183820152602001613367565b50506000910152565b600081518084526133a0816020860160208601613364565b601f01601f19169290920160200192915050565b602081526000612dca6020830184613388565b6000602082840312156133d957600080fd5b5035919050565b6001600160a01b03811681146113cf57600080fd5b6000806040838503121561340857600080fd5b8235613413816133e0565b946020939093013593505050565b60006101208b835280602084015261343b8184018c613388565b9050828103604084015261344f818b613388565b90508281036060840152613463818a613388565b6001600160a01b03989098166080840152505060a081019490945260c0840192909252151560e0830152151561010090910152949350505050565b6000806000606084860312156134b357600080fd5b83356134be816133e0565b925060208401356134ce816133e0565b929592945050506040919091013590565b86815285602082015260c0604082015260006134fe60c0830187613388565b82810360608401526135108187613388565b6080840195909552505090151560a090910152949350505050565b6020808252825182820181905260009190848201906040850190845b818110156118de57835183529284019291840191600101613547565b60006020828403121561357557600080fd5b8135612dca816133e0565b6000806040838503121561359357600080fd5b50508035926020909101359150565b60006101208b83528a60208401528060408401526135c28184018b613388565b90508860608401528760808401528660a08401528560c084015282810360e08401526135ee8186613388565b9150508215156101008301529a9950505050505050505050565b6000806040838503121561361b57600080fd5b8235613626816133e0565b91506020830135801515811461363b57600080fd5b809150509250929050565b634e487b7160e01b600052604160045260246000fd5b600067ffffffffffffffff8084111561367757613677613646565b604051601f8501601f19908116603f0116810190828211818310171561369f5761369f613646565b816040528093508581528686860111156136b857600080fd5b858560208301376000602087830101525050509392505050565b600080600080608085870312156136e857600080fd5b84356136f3816133e0565b93506020850135613703816133e0565b925060408501359150606085013567ffffffffffffffff81111561372657600080fd5b8501601f8101871361373757600080fd5b6137468782356020840161365c565b91505092959194509250565b600082601f83011261376357600080fd5b612dca8383356020850161365c565b6000806000806080858703121561378857600080fd5b84359350602085013567ffffffffffffffff808211156137a757600080fd5b6137b388838901613752565b945060408701359150808211156137c957600080fd5b506137d687828801613752565b949793965093946060013593505050565b600080604083850312156137fa57600080fd5b8235613805816133e0565b9150602083013561363b816133e0565b60008060008060008060c0878903121561382e57600080fd5b86359550602087013567ffffffffffffffff8082111561384d57600080fd5b6138598a838b01613752565b965060408901359550606089013594506080890135935060a089013591508082111561388457600080fd5b5061389189828a01613752565b9150509295509295509295565b600080600080600060a086880312156138b657600080fd5b853567ffffffffffffffff808211156138ce57600080fd5b6138da89838a01613752565b965060208801359150808211156138f057600080fd5b6138fc89838a01613752565b9550604088013591508082111561391257600080fd5b5061391f88828901613752565b9598949750949560608101359550608001359392505050565b600181811c9082168061394c57607f821691505b60208210810361396c57634e487b7160e01b600052602260045260246000fd5b50919050565b60008261398f57634e487b7160e01b600052601260045260246000fd5b500690565b634e487b7160e01b600052601160045260246000fd5b8082018082111561081f5761081f613994565b634e487b7160e01b600052603260045260246000fd5b6000600182016139e5576139e5613994565b5060010190565b6000602082840312156139fe57600080fd5b8151612dca816133e0565b808202811582820484141761081f5761081f613994565b601f82111561156757600081815260208120601f850160051c81016020861015613a475750805b601f850160051c820191505b81811015612a3a57828155600101613a53565b815167ffffffffffffffff811115613a8057613a80613646565b613a9481613a8e8454613938565b84613a20565b602080601f831160018114613ac95760008415613ab15750858301515b600019600386901b1c1916600185901b178555612a3a565b600085815260208120601f198616915b82811015613af857888601518255948401946001909101908401613ad9565b5085821015613b165787850151600019600388901b60f8161c191681555b5050505050600190811b01905550565b604081526000613b396040830185613388565b90508260208301529392505050565b6001600160a01b0385811682528416602082015260408101839052608060608201819052600090613b7b90830184613388565b9695505050505050565b600060208284031215613b9757600080fd5b8151612dca81613331565b60008351613bb4818460208801613364565b835190830190613bc8818360208801613364565b01949350505050565b8181038181111561081f5761081f613994565b634e487b7160e01b600052603160045260246000fdfea26469706673582212203fab788cdba0efc1def216ea60b5a0a1affaea4962ffdbdcf7997ab7743a3c5564736f6c63430008140033",
  "linkReferences": {},
  "deployedLinkReferences": {}
}