{
  "_format": "hh-sol-artifact-1",
  "contractName": "EventTicketing",
  "sourceName": "contracts/EventTicketing.sol",
  "abi": [
    {
      "inputs": [],
      "stateMutability": "nonpayable",
      "type": "constructor"
    },
    {
      "inputs": [
        {
          "internalType": "address",
          "name": "sender",
          "type": "address"
        },
        {
          "internalType": "uint256",
          "name": "tokenId",
          "type": "uint256"
        },
        {
          "internalType": "address",
          "name": "owner",
          "type": "address"
        }
      ],
      "name": "ERC721IncorrectOwner",
      "type": "error"
    },
    {
      "inputs": [
        {
          "internalType": "address",
          "name": "operator",
          "type": "address"
        },
        {
          "internalType": "uint256",
          "name": "tokenId",
          "type": "uint256"
        }
      ],
      "name": "ERC721InsufficientApproval",
      "type": "error"
    },
    {
      "inputs": [
        {
          "internalType": "address",
          "name": "approver",
          "type": "address"
        }
      ],
      "name": "ERC721InvalidApprover",
      "type": "error"
    },
    {
      "inputs": [
        {
          "internalType": "address",
          "name": "operator",
          "type": "address"
        }
      ],
      "name": "ERC721InvalidOperator",
      "type": "error"
    },
    {
      "inputs": [
        {
          "internalType": "address",
          "name": "owner",
          "type": "address"
        }
      ],
      "name": "ERC721InvalidOwner",
      "type": "error"
    },
    {
      "inputs": [
        {
          "internalType": "address",
          "name": "receiver",
          "type": "address"
        }
      ],
      "name": "ERC721InvalidReceiver",
      "type": "error"
    },
    {
      "inputs": [
        {
          "internalType": "address",
          "name": "sender",
          "type": "address"
        }
      ],
      "name": "ERC721InvalidSender",
      "type": "error"
    },
    {
      "inputs": [
        {
          "internalType": "uint256",
          "name": "tokenId",
          "type": "uint256"
        }
      ],
      "name": "ERC721NonexistentToken",
      "type": "error"
    },
    {
      "inputs": [
        {
          "internalType": "address",
          "name": "owner",
          "type": "address"
        }
      ],
      "name": "OwnableInvalidOwner",
      "type": "error"
    },
    {
      "inputs": [
        {
          "internalType": "address",
          "name": "account",
          "type": "address"
        }
      ],
      "name": "OwnableUnauthorizedAccount",
      "type": "error"
    },
    {
      "inputs": [],
      "name": "ReentrancyGuardReentrantCall",
      "type": "error"
    },
    {
      "anonymous": false,
      "inputs": [
        {
          "indexed": true,
          "internalType": "address",
          "name": "owner",
          "type": "address"
        },
        {
          "indexed": true,
          "internalType": "address",
          "name": "approved",
          "type": "address"
        },
        {
          "indexed": true,
          "internalType": "uint256",
          "name": "tokenId",
          "type": "uint256"
        }
      ],
      "name": "Approval",
      "type": "event"
    },
    {
      "anonymous": false,
      "inputs": [
        {
          "indexed": true,
          "internalType": "address",
          "name": "owner",
          "type": "address"
        },
        {
          "indexed": true,
          "internalType": "address",
          "name": "operator",
          "type": "address"
        },
        {
          "indexed": false,
          "internalType": "bool",
          "name": "approved",
          "type": "bool"
        }
      ],
      "name": "ApprovalForAll",
      "type": "event"
    },
    {
      "anonymous": false,
      "inputs": [
        {
          "indexed": false,
          "internalType": "uint256",
          "name": "_fromTokenId",
          "type": "uint256"
        },
        {
          "indexed": false,
          "internalType": "uint256",
          "name": "_toTokenId",
          "type": "uint256"
        }
      ],
      "name": "BatchMetadataUpdate",
      "type": "event"
    },
    {
      "anonymous": false,
      "inputs": [
        {
          "indexed": true,
          "internalType": "uint256",
          "name": "eventId",
          "type": "uint256"
        },
        {
          "indexed": true,
          "internalType": "address",
          "name": "claimer",
          "type": "address"
        },
        {
          "indexed": true,
          "internalType": "uint256",
          "name": "rewardId",
          "type": "uint256"
        }
      ],
      "name": "BlindBagClaimed",
      "type": "event"
    },
    {
      "anonymous": false,
      "inputs": [
        {
          "indexed": true,
          "internalType": "uint256",
          "name": "eventId",
          "type": "uint256"
        },
        {
          "indexed": false,
          "internalType": "string",
          "name": "name",
          "type": "string"
        },
        {
          "indexed": true,
          "internalType": "address",
          "name": "organizer",
          "type": "address"
        }
      ],
      "name": "EventCreated",
      "type": "event"
    },
    {
      "anonymous": false,
      "inputs": [
        {
          "indexed": true,
          "internalType": "uint256",
          "name": "eventId",
          "type": "uint256"
        }
      ],
      "name": "EventEnded",
      "type": "event"
    },
    {
      "anonymous": false,
      "inputs": [
        {
          "indexed": false,
          "internalType": "uint256",
          "name": "_tokenId",
          "type": "uint256"
        }
      ],
      "name": "MetadataUpdate",
      "type": "event"
    },
    {
      "anonymous": false,
      "inputs": [
        {
          "indexed": true,
          "internalType": "address",
          "name": "previousOwner",
          "type": "address"
        },
        {
          "indexed": true,
          "internalType": "address",
          "name": "newOwner",
          "type": "address"
        }
      ],
      "name": "OwnershipTransferred",
      "type": "event"
    },
    {
      "anonymous": false,
      "inputs": [
        {
          "indexed": true,
          "internalType": "uint256",
          "name": "eventId",
          "type": "uint256"
        },
        {
          "indexed": true,
          "internalType": "uint256",
          "name": "tierId",
          "type": "uint256"
        },
        {
          "indexed": false,
          "internalType": "uint256",
          "name": "tokenId",
          "type": "uint256"
        },
        {
          "indexed": true,
          "internalType": "address",
          "name": "buyer",
          "type": "address"
        }
      ],
      "name": "TicketPurchased",
      "type": "event"
    },
    {
      "anonymous": false,
      "inputs": [
        {
          "indexed": true,
          "internalType": "uint256",
          "name": "tokenId",
          "type": "uint256"
        },
        {
          "indexed": true,
          "internalType": "uint256",
          "name": "eventId",
          "type": "uint256"
        }
      ],
      "name": "TicketUsed",
      "type": "event"
    },
    {
      "anonymous": false,
      "inputs": [
        {
          "indexed": true,
          "internalType": "uint256",
          "name": "tierId",
          "type": "uint256"
        },
        {
          "indexed": true,
          "internalType": "uint256",
          "name": "eventId",
          "type": "uint256"
        },
        {
          "indexed": false,
          "internalType": "string",
          "name": "name",
          "type": "string"
        },
        {
          "indexed": false,
          "internalType": "uint256",
          "name": "price",
          "type": "uint256"
        }
      ],
      "name": "TierCreated",
      "type": "event"
    },
    {
      "anonymous": false,
      "inputs": [
        {
          "indexed": true,
          "internalType": "address",
          "name": "from",
          "type": "address"
        },
        {
          "indexed": true,
          "internalType": "address",
          "name": "to",
          "type": "address"
        },
        {
          "indexed": true,
          "internalType": "uint256",
          "name": "tokenId",
          "type": "uint256"
        }
      ],
      "name": "Transfer",
      "type": "event"
    },
    {
      "inputs": [
        {
          "internalType": "address",
          "name": "to",
          "type": "address"
        },
        {
          "internalType": "uint256",
          "name": "tokenId",
          "type": "uint256"
        }
      ],
      "name": "approve",
      "outputs": [],
      "stateMutability": "nonpayable",
      "type": "function"
    },
    {
      "inputs": [
        {
          "internalType": "address",
          "name": "owner",
          "type": "address"
        }
      ],
      "name": "balanceOf",
      "outputs": [
        {
          "internalType": "uint256",
          "name": "",
          "type": "uint256"
        }
      ],
      "stateMutability": "view",
      "type": "function"
    },
    {
      "inputs": [
        {
          "internalType": "uint256",
          "name": "",
          "type": "uint256"
        }
      ],
      "name": "blindBagRewards",
      "outputs": [
        {
          "internalType": "uint256",
          "name": "rewardId",
          "type": "uint256"
        },
        {
          "internalType": "uint256",
          "name": "eventId",
          "type": "uint256"
        },
        {
          "internalType": "string",
          "name": "name",
          "type": "string"
        },
        {
          "internalType": "string",
          "name": "metadataUri",
          "type": "string"
        },
        {
          "internalType": "uint256",
          "name": "rarity",
          "type": "uint256"
        },
        {
          "internalType": "bool",
          "name": "isActive",
          "type": "bool"
        }
      ],
      "stateMutability": "view",
      "type": "function"
    },
    {
      "inputs": [
        {
          "internalType": "uint256",
          "name": "_eventId",
          "type": "uint256"
        }
      ],
      "name": "claimBlindBag",
      "outputs": [],
      "stateMutability": "nonpayable",
      "type": "function"
    },
    {
      "inputs": [
        {
          "internalType": "uint256",
          "name": "_eventId",
          "type": "uint256"
        },
        {
          "internalType": "string",
          "name": "_name",
          "type": "string"
        },
        {
          "internalType": "string",
          "name": "_metadataUri",
          "type": "string"
        },
        {
          "internalType": "uint256",
          "name": "_rarity",
          "type": "uint256"
        }
      ],
      "name": "createBlindBagReward",
      "outputs": [
        {
          "internalType": "uint256",
          "name": "",
          "type": "uint256"
        }
      ],
      "stateMutability": "nonpayable",
      "type": "function"
    },
    {
      "inputs": [
        {
          "internalType": "string",
          "name": "_name",
          "type": "string"
        },
        {
          "internalType": "string",
          "name": "_description",
          "type": "string"
        },
        {
          "internalType": "string",
          "name": "_imageUri",
          "type": "string"
        },
        {
          "internalType": "uint256",
          "name": "_startTime",
          "type": "uint256"
        },
        {
          "internalType": "uint256",
          "name": "_endTime",
          "type": "uint256"
        }
      ],
      "name": "createEvent",
      "outputs": [
        {
          "internalType": "uint256",
          "name": "",
          "type": "uint256"
        }
      ],
      "stateMutability": "nonpayable",
      "type": "function"
    },
    {
      "inputs": [
        {
          "internalType": "uint256",
          "name": "_eventId",
          "type": "uint256"
        },
        {
          "internalType": "string",
          "name": "_name",
          "type": "string"
        },
        {
          "internalType": "uint256",
          "name": "_price",
          "type": "uint256"
        },
        {
          "internalType": "uint256",
          "name": "_maxSupply",
          "type": "uint256"
        },
        {
          "internalType": "uint256",
          "name": "_maxPerWallet",
          "type": "uint256"
        },
        {
          "internalType": "string",
          "name": "_metadataUri",
          "type": "string"
        }
      ],
      "name": "createTicketTier",
      "outputs": [
        {
          "internalType": "uint256",
          "name": "",
          "type": "uint256"
        }
      ],
      "stateMutability": "nonpayable",
      "type": "function"
    },
    {
      "inputs": [
        {
          "internalType": "uint256",
          "name": "_eventId",
          "type": "uint256"
        }
      ],
      "name": "endEvent",
      "outputs": [],
      "stateMutability": "nonpayable",
      "type": "function"
    },
    {
      "inputs": [
        {
          "internalType": "uint256",
          "name": "",
          "type": "uint256"
        },
        {
          "internalType": "uint256",
          "name": "",
          "type": "uint256"
        }
      ],
      "name": "eventRewards",
      "outputs": [
        {
          "internalType": "uint256",
          "name": "",
          "type": "uint256"
        }
      ],
      "stateMutability": "view",
      "type": "function"
    },
    {
      "inputs": [
        {
          "internalType": "uint256",
          "name": "",
          "type": "uint256"
        },
        {
          "internalType": "uint256",
          "name": "",
          "type": "uint256"
        }
      ],
      "name": "eventTiers",
      "outputs": [
        {
          "internalType": "uint256",
          "name": "",
          "type": "uint256"
        }
      ],
      "stateMutability": "view",
      "type": "function"
    },
    {
      "inputs": [
        {
          "internalType": "uint256",
          "name": "",
          "type": "uint256"
        }
      ],
      "name": "events",
      "outputs": [
        {
          "internalType": "uint256",
          "name": "eventId",
          "type": "uint256"
        },
        {
          "internalType": "string",
          "name": "name",
          "type": "string"
        },
        {
          "internalType": "string",
          "name": "description",
          "type": "string"
        },
        {
          "internalType": "string",
          "name": "imageUri",
          "type": "string"
        },
        {
          "internalType": "address",
          "name": "organizer",
          "type": "address"
        },
        {
          "internalType": "uint256",
          "name": "startTime",
          "type": "uint256"
        },
        {
          "internalType": "uint256",
          "name": "endTime",
          "type": "uint256"
        },
        {
          "internalType": "bool",
          "name": "isActive",
          "type": "bool"
        },
        {
          "internalType": "bool",
          "name": "hasEnded",
          "type": "bool"
        }
      ],
      "stateMutability": "view",
      "type": "function"
    },
    {
      "inputs": [
        {
          "internalType": "uint256",
          "name": "tokenId",
          "type": "uint256"
        }
      ],
      "name": "getApproved",
      "outputs": [
        {
          "internalType": "address",
          "name": "",
          "type": "address"
        }
      ],
      "stateMutability": "view",
      "type": "function"
    },
    {
      "inputs": [
        {
          "internalType": "uint256",
          "name": "_eventId",
          "type": "uint256"
        }
      ],
      "name": "getEventRewards",
      "outputs": [
        {
          "internalType": "uint256[]",
          "name": "",
          "type": "uint256[]"
        }
      ],
      "stateMutability": "view",
      "type": "function"
    },
    {
      "inputs": [
        {
          "internalType": "uint256",
          "name": "_eventId",
          "type": "uint256"
        }
      ],
      "name": "getEventTiers",
      "outputs": [
        {
          "internalType": "uint256[]",
          "name": "",
          "type": "uint256[]"
        }
      ],
      "stateMutability": "view",
      "type": "function"
    },
    {
      "inputs": [
        {
          "internalType": "address",
          "name": "_user",
          "type": "address"
        },
        {
          "internalType": "uint256",
          "name": "_eventId",
          "type": "uint256"
        }
      ],
      "name": "getUserTickets",
      "outputs": [
        {
          "internalType": "uint256[]",
          "name": "",
          "type": "uint256[]"
        }
      ],
      "stateMutability": "view",
      "type": "function"
    },
    {
      "inputs": [
        {
          "internalType": "address",
          "name": "_user",
          "type": "address"
        },
        {
          "internalType": "uint256",
          "name": "_eventId",
          "type": "uint256"
        }
      ],
      "name": "hasAttendedEvent",
      "outputs": [
        {
          "internalType": "bool",
          "name": "",
          "type": "bool"
        }
      ],
      "stateMutability": "view",
      "type": "function"
    },
    {
      "inputs": [
        {
          "internalType": "address",
          "name": "",
          "type": "address"
        },
        {
          "internalType": "uint256",
          "name": "",
          "type": "uint256"
        }
      ],
      "name": "hasClaimedBlindBag",
      "outputs": [
        {
          "internalType": "bool",
          "name": "",
          "type": "bool"
        }
      ],
      "stateMutability": "view",
      "type": "function"
    },
    {
      "inputs": [
        {
          "internalType": "address",
          "name": "owner",
          "type": "address"
        },
        {
          "internalType": "address",
          "name": "operator",
          "type": "address"
        }
      ],
      "name": "isApprovedForAll",
      "outputs": [
        {
          "internalType": "bool",
          "name": "",
          "type": "bool"
        }
      ],
      "stateMutability": "view",
      "type": "function"
    },
    {
      "inputs": [],
      "name": "name",
      "outputs": [
        {
          "internalType": "string",
          "name": "",
          "type": "string"
        }
      ],
      "stateMutability": "view",
      "type": "function"
    },
    {
      "inputs": [],
      "name": "owner",
      "outputs": [
        {
          "internalType": "address",
          "name": "",
          "type": "address"
        }
      ],
      "stateMutability": "view",
      "type": "function"
    },
    {
      "inputs": [
        {
          "internalType": "uint256",
          "name": "tokenId",
          "type": "uint256"
        }
      ],
      "name": "ownerOf",
      "outputs": [
        {
          "internalType": "address",
          "name": "",
          "type": "address"
        }
      ],
      "stateMutability": "view",
      "type": "function"
    },
    {
      "inputs": [
        {
          "internalType": "uint256",
          "name": "_tierId",
          "type": "uint256"
        },
        {
          "internalType": "uint256",
          "name": "_quantity",
          "type": "uint256"
        }
      ],
      "name": "purchaseTicket",
      "outputs": [],
      "stateMutability": "payable",
      "type": "function"
    },
    {
      "inputs": [],
      "name": "renounceOwnership",
      "outputs": [],
      "stateMutability": "nonpayable",
      "type": "function"
    },
    {
      "inputs": [
        {
          "internalType": "address",
          "name": "from",
          "type": "address"
        },
        {
          "internalType": "address",
          "name": "to",
          "type": "address"
        },
        {
          "internalType": "uint256",
          "name": "tokenId",
          "type": "uint256"
        }
      ],
      "name": "safeTransferFrom",
      "outputs": [],
      "stateMutability": "nonpayable",
      "type": "function"
    },
    {
      "inputs": [
        {
          "internalType": "address",
          "name": "from",
          "type": "address"
        },
        {
          "internalType": "address",
          "name": "to",
          "type": "address"
        },
        {
          "internalType": "uint256",
          "name": "tokenId",
          "type": "uint256"
        },
        {
          "internalType": "bytes",
          "name": "data",
          "type": "bytes"
        }
      ],
      "name": "safeTransferFrom",
      "outputs": [],
      "stateMutability": "nonpayable",
      "type": "function"
    },
    {
      "inputs": [
        {
          "internalType": "address",
          "name": "operator",
          "type": "address"
        },
        {
          "internalType": "bool",
          "name": "approved",
          "type": "bool"
        }
      ],
      "name": "setApprovalForAll",
      "outputs": [],
      "stateMutability": "nonpayable",
      "type": "function"
    },
    {
      "inputs": [
        {
          "internalType": "bytes4",
          "name": "interfaceId",
          "type": "bytes4"
        }
      ],
      "name": "supportsInterface",
      "outputs": [
        {
          "internalType": "bool",
          "name": "",
          "type": "bool"
        }
      ],
      "stateMutability": "view",
      "type": "function"
    },
    {
      "inputs": [],
      "name": "symbol",
      "outputs": [
        {
          "internalType": "string",
          "name": "",
          "type": "string"
        }
      ],
      "stateMutability": "view",
      "type": "function"
    },
    {
      "inputs": [
        {
          "internalType": "uint256",
          "name": "",
          "type": "uint256"
        }
      ],
      "name": "ticketTiers",
      "outputs": [
        {
          "internalType": "uint256",
          "name": "tierId",
          "type": "uint256"
        },
        {
          "internalType": "uint256",
          "name": "eventId",
          "type": "uint256"
        },
        {
          "internalType": "string",
          "name": "name",
          "type": "string"
        },
        {
          "internalType": "uint256",
          "name": "price",
          "type": "uint256"
        },
        {
          "internalType": "uint256",
          "name": "maxSupply",
          "type": "uint256"
        },
        {
          "internalType": "uint256",
          "name": "currentSupply",
          "type": "uint256"
        },
        {
          "internalType": "uint256",
          "name": "maxPerWallet",
          "type": "uint256"
        },
        {
          "internalType": "string",
          "name": "metadataUri",
          "type": "string"
        },
        {
          "internalType": "bool",
          "name": "isActive",
          "type": "bool"
        }
      ],
      "stateMutability": "view",
      "type": "function"
    },
    {
      "inputs": [
        {
          "internalType": "uint256",
          "name": "",
          "type": "uint256"
        }
      ],
      "name": "tickets",
      "outputs": [
        {
          "internalType": "uint256",
          "name": "tokenId",
          "type": "uint256"
        },
        {
          "internalType": "uint256",
          "name": "eventId",
          "type": "uint256"
        },
        {
          "internalType": "uint256",
          "name": "tierId",
          "type": "uint256"
        },
        {
          "internalType": "address",
          "name": "owner",
          "type": "address"
        },
        {
          "internalType": "bool",
          "name": "isUsed",
          "type": "bool"
        },
        {
          "internalType": "uint256",
          "name": "purchaseTime",
          "type": "uint256"
        }
      ],
      "stateMutability": "view",
      "type": "function"
    },
    {
      "inputs": [
        {
          "internalType": "uint256",
          "name": "tokenId",
          "type": "uint256"
        }
      ],
      "name": "tokenURI",
      "outputs": [
        {
          "internalType": "string",
          "name": "",
          "type": "string"
        }
      ],
      "stateMutability": "view",
      "type": "function"
    },
    {
      "inputs": [
        {
          "internalType": "address",
          "name": "from",
          "type": "address"
        },
        {
          "internalType": "address",
          "name": "to",
          "type": "address"
        },
        {
          "internalType": "uint256",
          "name": "tokenId",
          "type": "uint256"
        }
      ],
      "name": "transferFrom",
      "outputs": [],
      "stateMutability": "nonpayable",
      "type": "function"
    },
    {
      "inputs": [
        {
          "internalType": "address",
          "name": "newOwner",
          "type": "address"
        }
      ],
      "name": "transferOwnership",
      "outputs": [],
      "stateMutability": "nonpayable",
      "type": "function"
    },
    {
      "inputs": [
        {
          "internalType": "uint256",
          "name": "_tokenId",
          "type": "uint256"
        }
      ],
      "name": "useTicket",
      "outputs": [],
      "stateMutability": "nonpayable",
      "type": "function"
    },
    {
      "inputs": [
        {
          "internalType": "address",
          "name": "",
          "type": "address"
        },
        {
          "internalType": "uint256",
          "name": "",
          "type": "uint256"
        }
      ],
      "name": "walletTierPurchases",
      "outputs": [
        {
          "internalType": "uint256",
          "name": "",
          "type": "uint256"
        }
      ],
      "stateMutability": "view",
      "type": "function"
    }
  ],
  "bytecode": "0x60806040523480156200001157600080fd5b50336040518060400160405280600b81526020016a115d995b9d151a58dad95d60aa1b81525060405180604001604052806004815260200163115512d560e21b8152508160009081620000659190620001b4565b506001620000748282620001b4565b5050506001600160a01b038116620000a657604051631e4fbdf760e01b81526000600482015260240160405180910390fd5b620000b181620000bd565b50600160085562000280565b600780546001600160a01b038381166001600160a01b0319831681179093556040519116919082907f8be0079c531659141344cd1fd0a4f28419497f9722a3daafe3b4186f6b6457e090600090a35050565b634e487b7160e01b600052604160045260246000fd5b600181811c908216806200013a57607f821691505b6020821081036200015b57634e487b7160e01b600052602260045260246000fd5b50919050565b601f821115620001af57600081815260208120601f850160051c810160208610156200018a5750805b601f850160051c820191505b81811015620001ab5782815560010162000196565b5050505b505050565b81516001600160401b03811115620001d057620001d06200010f565b620001e881620001e1845462000125565b8462000161565b602080601f831160018114620002205760008415620002075750858301515b600019600386901b1c1916600185901b178555620001ab565b600085815260208120601f198616915b82811015620002515788860151825594840194600190910190840162000230565b5085821015620002705787850151600019600388901b60f8161c191681555b5050505050600190811b01905550565b61378e80620002906000396000f3fe6080604052600436106102045760003560e01c80637d51d21411610118578063bd8d6e3f116100a0578063e985e9c51161006f578063e985e9c5146106d7578063ebd9f5be146106f7578063f050f5bb14610717578063f2fde38b14610737578063f5f00d841461075757600080fd5b8063bd8d6e3f14610664578063bdbbb0cb14610684578063c87b56dd14610697578063d860625a146106b757600080fd5b80639236afca116100e75780639236afca146105a257806395d89b41146105d7578063a22cb465146105ec578063b242fa211461060c578063b88d4fde1461064457600080fd5b80637d51d21414610524578063814058be146105445780638920dd14146105645780638da5cb5b1461058457600080fd5b8063356fbdb81161019b57806350b447121161016a57806350b44712146103ee5780636023ac83146104865780636352211e146104c157806370a08231146104e1578063715018a61461050f57600080fd5b8063356fbdb81461034f5780633b3f42a51461036f57806342842e0e146103a1578063499d9b3f146103c157600080fd5b80630b791430116101d75780630b791430146102ba57806323b872dd146102ef578063266064481461030f578063330a347b1461032f57600080fd5b806301ffc9a71461020957806306fdde031461023e578063081812fc14610260578063095ea7b314610298575b600080fd5b34801561021557600080fd5b50610229610224366004612ec2565b610777565b60405190151581526020015b60405180910390f35b34801561024a57600080fd5b50610253610788565b6040516102359190612f2f565b34801561026c57600080fd5b5061028061027b366004612f42565b61081a565b6040516001600160a01b039091168152602001610235565b3480156102a457600080fd5b506102b86102b3366004612f70565b610843565b005b3480156102c657600080fd5b506102da6102d5366004612f42565b610852565b60405161023599989796959493929190612f9c565b3480156102fb57600080fd5b506102b861030a366004613019565b610a42565b34801561031b57600080fd5b506102b861032a366004612f42565b610ad2565b34801561033b57600080fd5b506102b861034a366004612f42565b610c90565b34801561035b57600080fd5b506102b861036a366004612f42565b610d99565b34801561037b57600080fd5b5061038f61038a366004612f42565b6112d0565b6040516102359695949392919061305a565b3480156103ad57600080fd5b506102b86103bc366004613019565b611419565b3480156103cd57600080fd5b506103e16103dc366004612f42565b611439565b60405161023591906130a6565b3480156103fa57600080fd5b5061044e610409366004612f42565b600d60205260009081526040902080546001820154600283015460038401546004909401549293919290916001600160a01b03811691600160a01b90910460ff169086565b604080519687526020870195909552938501929092526001600160a01b031660608401521515608083015260a082015260c001610235565b34801561049257600080fd5b506102296104a1366004612f70565b601260209081526000928352604080842090915290825290205460ff1681565b3480156104cd57600080fd5b506102806104dc366004612f42565b61149b565b3480156104ed57600080fd5b506105016104fc3660046130ea565b6114a6565b604051908152602001610235565b34801561051b57600080fd5b506102b86114ee565b34801561053057600080fd5b506103e161053f366004612f42565b611502565b34801561055057600080fd5b506103e161055f366004612f70565b611562565b34801561057057600080fd5b5061050161057f366004613107565b611735565b34801561059057600080fd5b506007546001600160a01b0316610280565b3480156105ae57600080fd5b506105c26105bd366004612f42565b611766565b60405161023599989796959493929190613129565b3480156105e357600080fd5b506102536118c0565b3480156105f857600080fd5b506102b861060736600461318f565b6118cf565b34801561061857600080fd5b50610501610627366004612f70565b601160209081526000928352604080842090915290825290205481565b34801561065057600080fd5b506102b861065f366004613259565b6118da565b34801561067057600080fd5b5061022961067f366004612f70565b6118f2565b6102b8610692366004613107565b611a24565b3480156106a357600080fd5b506102536106b2366004612f42565b611e0f565b3480156106c357600080fd5b506105016106d23660046132f9565b611e1a565b3480156106e357600080fd5b506102296106f236600461336e565b611fce565b34801561070357600080fd5b5061050161071236600461339c565b611ffc565b34801561072357600080fd5b50610501610732366004613107565b612280565b34801561074357600080fd5b506102b86107523660046130ea565b61229c565b34801561076357600080fd5b50610501610772366004613425565b6122d7565b6000610782826124e0565b92915050565b606060008054610797906134bf565b80601f01602080910402602001604051908101604052809291908181526020018280546107c3906134bf565b80156108105780601f106107e557610100808354040283529160200191610810565b820191906000526020600020905b8154815290600101906020018083116107f357829003601f168201915b5050505050905090565b600061082582612505565b506000828152600460205260409020546001600160a01b0316610782565b61084e82823361253e565b5050565b600b6020526000908152604090208054600182018054919291610874906134bf565b80601f01602080910402602001604051908101604052809291908181526020018280546108a0906134bf565b80156108ed5780601f106108c2576101008083540402835291602001916108ed565b820191906000526020600020905b8154815290600101906020018083116108d057829003601f168201915b505050505090806002018054610902906134bf565b80601f016020809104026020016040519081016040528092919081815260200182805461092e906134bf565b801561097b5780601f106109505761010080835404028352916020019161097b565b820191906000526020600020905b81548152906001019060200180831161095e57829003601f168201915b505050505090806003018054610990906134bf565b80601f01602080910402602001604051908101604052809291908181526020018280546109bc906134bf565b8015610a095780601f106109de57610100808354040283529160200191610a09565b820191906000526020600020905b8154815290600101906020018083116109ec57829003601f168201915b5050505060048301546005840154600685015460079095015493946001600160a01b039092169390925060ff8082169161010090041689565b6001600160a01b038216610a7157604051633250574960e11b8152600060048201526024015b60405180910390fd5b6000610a7e83833361254b565b9050836001600160a01b0316816001600160a01b031614610acc576040516364283d7b60e01b81526001600160a01b0380861660048301526024820184905282166044820152606401610a68565b50505050565b6000818152600d6020908152604080832060018101548452600b90925290912060048101546001600160a01b03163314610b5a5760405162461bcd60e51b8152602060048201526024808201527f4f6e6c79206576656e74206f7267616e697a65722063616e20757365207469636044820152636b65747360e01b6064820152608401610a68565b6003820154600160a01b900460ff1615610bac5760405162461bcd60e51b8152602060048201526013602482015272151a58dad95d08185b1c9958591e481d5cd959606a1b6044820152606401610a68565b8060050154421015610c005760405162461bcd60e51b815260206004820152601960248201527f4576656e7420686173206e6f74207374617274656420796574000000000000006044820152606401610a68565b8060060154421115610c465760405162461bcd60e51b815260206004820152600f60248201526e115d995b9d081a185cc8195b991959608a1b6044820152606401610a68565b60038201805460ff60a01b1916600160a01b179055600182015460405184907fad0a02848182e7d3a9bb0ae2cc919bdef92f9da6b0a45ced3656cf5443212ede90600090a3505050565b6000818152600b6020526040902060048101546001600160a01b03163314610d055760405162461bcd60e51b815260206004820152602260248201527f4f6e6c79206576656e74206f7267616e697a65722063616e20656e64206576656044820152611b9d60f21b6064820152608401610a68565b8060060154421015610d595760405162461bcd60e51b815260206004820152601a60248201527f4576656e7420656e642074696d65206e6f7420726561636865640000000000006044820152606401610a68565b60078101805461ff00191661010017905560405182907f60ec355296fe18fa9035fd377bd45120aad5d6ca18619a7b72cbd175771eca0a90600090a25050565b610da1612644565b6000818152600b602052604090206007810154610100900460ff16610e085760405162461bcd60e51b815260206004820152601760248201527f4576656e7420686173206e6f7420656e646564207965740000000000000000006044820152606401610a68565b33600090815260126020908152604080832085845290915290205460ff1615610e845760405162461bcd60e51b815260206004820152602860248201527f416c726561647920636c61696d656420626c696e642062616720666f722074686044820152671a5cc8195d995b9d60c21b6064820152608401610a68565b610e8e33836118f2565b610ee45760405162461bcd60e51b815260206004820152602160248201527f4d757374206861766520617474656e646564206576656e7420746f20636c61696044820152606d60f81b6064820152608401610a68565b3360008181526012602090815260408083208684528252808320805460ff19166001179055519192606492610f4992429244929091899101938452602084019290925260601b6bffffffffffffffffffffffff19166040830152605482015260740190565b6040516020818303038152906040528051906020012060001c610f6c91906134f9565b610f77906001613531565b600084815260106020908152604080832080548251818502810185019093528083529495509293909291830182828015610fd057602002820191906000526020600020905b815481526020019060010190808311610fbc575b505050505090506000805b82518110156111c1576000600e6000858481518110610ffc57610ffc613544565b602002602001015181526020019081526020016000206040518060c00160405290816000820154815260200160018201548152602001600282018054611041906134bf565b80601f016020809104026020016040519081016040528092919081815260200182805461106d906134bf565b80156110ba5780601f1061108f576101008083540402835291602001916110ba565b820191906000526020600020905b81548152906001019060200180831161109d57829003601f168201915b505050505081526020016003820180546110d3906134bf565b80601f01602080910402602001604051908101604052809291908181526020018280546110ff906134bf565b801561114c5780601f106111215761010080835404028352916020019161114c565b820191906000526020600020905b81548152906001019060200180831161112f57829003601f168201915b50505091835250506004820154602082015260059091015460ff16151560409091015260a08101519091508015611187575080608001518511155b156111ae5783828151811061119e5761119e613544565b60200260200101519250506111c1565b50806111b98161355a565b915050610fdb565b5080156112bf576009805490819060006111da8361355a565b91905055506111e9338261266e565b6000828152600e60205260409020600301805461128e91839161120b906134bf565b80601f0160208091040260200160405190810160405280929190818152602001828054611237906134bf565b80156112845780601f1061125957610100808354040283529160200191611284565b820191906000526020600020905b81548152906001019060200180831161126757829003601f168201915b5050505050612688565b6040518290339088907ffe4a02fbe5e5da45535bd2cacd4453a5361c44ebd66639f0b2078fc9ffe0422a90600090a4505b505050506112cd6001600855565b50565b600e60205260009081526040902080546001820154600283018054929391926112f8906134bf565b80601f0160208091040260200160405190810160405280929190818152602001828054611324906134bf565b80156113715780601f1061134657610100808354040283529160200191611371565b820191906000526020600020905b81548152906001019060200180831161135457829003601f168201915b505050505090806003018054611386906134bf565b80601f01602080910402602001604051908101604052809291908181526020018280546113b2906134bf565b80156113ff5780601f106113d4576101008083540402835291602001916113ff565b820191906000526020600020905b8154815290600101906020018083116113e257829003601f168201915b50505050600483015460059093015491929160ff16905086565b611434838383604051806020016040528060008152506118da565b505050565b60008181526010602090815260409182902080548351818402810184019094528084526060939283018282801561148f57602002820191906000526020600020905b81548152602001906001019080831161147b575b50505050509050919050565b600061078282612505565b60006001600160a01b0382166114d2576040516322718ad960e21b815260006004820152602401610a68565b506001600160a01b031660009081526003602052604090205490565b6114f66126d8565b6115006000612705565b565b6000818152600f602090815260409182902080548351818402810184019094528084526060939283018282801561148f576020028201919060005260206000209081548152602001906001019080831161147b5750505050509050919050565b60095460609060008167ffffffffffffffff811115611583576115836131cd565b6040519080825280602002602001820160405280156115ac578160200160208202803683370190505b5090506000805b8381101561168e576040516331a9108f60e11b8152600481018290523090636352211e90602401602060405180830381865afa925050508015611613575060408051601f3d908101601f1916820190925261161091810190613573565b60015b1561167c57876001600160a01b0316816001600160a01b031614801561164957506000828152600d602052604090206001015487145b1561167a578184848151811061166157611661613544565b6020908102919091010152826116768161355a565b9350505b505b806116868161355a565b9150506115b3565b5060008167ffffffffffffffff8111156116aa576116aa6131cd565b6040519080825280602002602001820160405280156116d3578160200160208202803683370190505b50905060005b8281101561172a578381815181106116f3576116f3613544565b602002602001015182828151811061170d5761170d613544565b6020908102919091010152806117228161355a565b9150506116d9565b509695505050505050565b600f602052816000526040600020818154811061175157600080fd5b90600052602060002001600091509150505481565b600c602052600090815260409020805460018201546002830180549293919261178e906134bf565b80601f01602080910402602001604051908101604052809291908181526020018280546117ba906134bf565b80156118075780601f106117dc57610100808354040283529160200191611807565b820191906000526020600020905b8154815290600101906020018083116117ea57829003601f168201915b505050505090806003015490806004015490806005015490806006015490806007018054611834906134bf565b80601f0160208091040260200160405190810160405280929190818152602001828054611860906134bf565b80156118ad5780601f10611882576101008083540402835291602001916118ad565b820191906000526020600020905b81548152906001019060200180831161189057829003601f168201915b5050506008909301549192505060ff1689565b606060018054610797906134bf565b61084e338383612757565b6118e5848484610a42565b610acc33858585856127f6565b600954600090815b81811015611a19576040516331a9108f60e11b8152600481018290523090636352211e90602401602060405180830381865afa92505050801561195a575060408051601f3d908101601f1916820190925261195791810190613573565b60015b15611a07576000828152600d6020908152604091829020825160c08101845281548152600182015492810183905260028201549381019390935260038101546001600160a01b0381166060850152600160a01b900460ff16151560808401526004015460a0830152861480156119e55750866001600160a01b031681606001516001600160a01b0316145b80156119f2575080608001515b15611a04576001945050505050610782565b50505b80611a118161355a565b9150506118fa565b506000949350505050565b611a2c612644565b6000828152600c6020908152604080832060018101548452600b909252909120600882015460ff16611a955760405162461bcd60e51b815260206004820152601260248201527154696572206973206e6f742061637469766560701b6044820152606401610a68565b600781015460ff16611adf5760405162461bcd60e51b81526020600482015260136024820152724576656e74206973206e6f742061637469766560681b6044820152606401610a68565b80600501544210611b325760405162461bcd60e51b815260206004820152601960248201527f4576656e742068617320616c72656164792073746172746564000000000000006044820152606401610a68565b8160040154838360050154611b479190613531565b1115611b955760405162461bcd60e51b815260206004820152601c60248201527f4e6f7420656e6f756768207469636b65747320617661696c61626c65000000006044820152606401610a68565b6006820154336000908152601160209081526040808320888452909152902054611bc0908590613531565b1115611c075760405162461bcd60e51b8152602060048201526016602482015275115e18d959591cc81b585e081c195c881dd85b1b195d60521b6044820152606401610a68565b828260030154611c179190613590565b341015611c5d5760405162461bcd60e51b8152602060048201526014602482015273125b9cdd59999a58da595b9d081c185e5b595b9d60621b6044820152606401610a68565b60005b83811015611d7e57600980549081906000611c7a8361355a565b9190505550611c89338261266e565b611c9c8185600701805461120b906134bf565b6040805160c0810182528281526001868101805460208085019182528486018c815233606087018181526000608089018181524260a08b019081528c8352600d8752918b902099518a5595519789019790975591516002880155905160038701805494511515600160a01b026001600160a81b03199095166001600160a01b039092169190911793909317909255925160049094019390935554925189815291929184917ff4810f4af7d42912f869f8efa162c4287b2dbce7d45c8777141a2c01d68bc0af910160405180910390a45080611d768161355a565b915050611c60565b5082826005016000828254611d939190613531565b909155505033600090815260116020908152604080832087845290915281208054859290611dc2908490613531565b909155505060048101546040516001600160a01b03909116903480156108fc02916000818181858888f19350505050158015611e02573d6000803e3d6000fd5b50505061084e6001600855565b606061078282612921565b6000848152600b60205260408120600401546001600160a01b03163314611e935760405162461bcd60e51b815260206004820152602760248201527f4f6e6c79206576656e74206f7267616e697a65722063616e20637265617465206044820152667265776172647360c81b6064820152608401610a68565b60018210158015611ea5575060648211155b611ef15760405162461bcd60e51b815260206004820152601c60248201527f526172697479206d757374206265206265747765656e20312d313030000000006044820152606401610a68565b600980549081906000611f038361355a565b90915550506040805160c08101825282815260208082018981528284018981526060840189905260808401889052600160a085018190526000878152600e9094529490922083518155905193810193909355519091906002820190611f6890826135ed565b5060608201516003820190611f7d90826135ed565b506080820151600482015560a0909101516005909101805460ff1916911515919091179055600095865260106020908152604087208054600181018255908852962090950185905550929392505050565b6001600160a01b03918216600090815260056020908152604080832093909416825291909152205460ff1690565b6000868152600b60205260408120600401546001600160a01b031633146120735760405162461bcd60e51b815260206004820152602560248201527f4f6e6c79206576656e74206f7267616e697a65722063616e2063726561746520604482015264746965727360d81b6064820152608401610a68565b6000878152600b602052604090206007015460ff166120ca5760405162461bcd60e51b81526020600482015260136024820152724576656e74206973206e6f742061637469766560681b6044820152606401610a68565b600084116121245760405162461bcd60e51b815260206004820152602160248201527f4d617820737570706c79206d7573742062652067726561746572207468616e206044820152600360fc1b6064820152608401610a68565b6009805490819060006121368361355a565b91905055506040518061012001604052808281526020018981526020018881526020018781526020018681526020016000815260200185815260200184815260200160011515815250600c6000838152602001908152602001600020600082015181600001556020820151816001015560408201518160020190816121bb91906135ed565b50606082015160038201556080820151600482015560a0820151600582015560c0820151600682015560e082015160078201906121f890826135ed565b5061010091909101516008909101805460ff19169115159190911790556000888152600f602090815260408083208054600181018255908452919092200182905551889082907f4baf285bf2d939e1e30f6addbf03315085042274c5703fc126a1dde8ae20fe3a9061226d908b908b906136ad565b60405180910390a3979650505050505050565b6010602052816000526040600020818154811061175157600080fd5b6122a46126d8565b6001600160a01b0381166122ce57604051631e4fbdf760e01b815260006004820152602401610a68565b6112cd81612705565b60004283116123285760405162461bcd60e51b815260206004820181905260248201527f53746172742074696d65206d75737420626520696e20746865206675747572656044820152606401610a68565b8282116123815760405162461bcd60e51b815260206004820152602160248201527f456e642074696d65206d7573742062652061667465722073746172742074696d6044820152606560f81b6064820152608401610a68565b600a805490819060006123938361355a565b9091555050604080516101208101825282815260208082018a81528284018a90526060830189905233608084015260a0830188905260c08301879052600160e0840181905260006101008501819052868152600b90935293909120825181559051919290919082019061240690826135ed565b506040820151600282019061241b90826135ed565b506060820151600382019061243090826135ed565b5060808201516004820180546001600160a01b0319166001600160a01b0390921691909117905560a0820151600582015560c0820151600682015560e0820151600790910180546101009384015161ffff1990911692151561ff00191692909217911515909202179055604051339082907f40fb05b814a900c99fa0a76d919dfdeaf3389540e4ca70f97ba40ca9a38f3797906124ce908b90612f2f565b60405180910390a39695505050505050565b60006001600160e01b03198216632483248360e11b1480610782575061078282612a32565b6000818152600260205260408120546001600160a01b03168061078257604051637e27328960e01b815260048101849052602401610a68565b6114348383836001612a82565b6000828152600260205260408120546001600160a01b039081169083161561257857612578818486612b88565b6001600160a01b038116156125b657612595600085600080612a82565b6001600160a01b038116600090815260036020526040902080546000190190555b6001600160a01b038516156125e5576001600160a01b0385166000908152600360205260409020805460010190555b60008481526002602052604080822080546001600160a01b0319166001600160a01b0389811691821790925591518793918516917fddf252ad1be2c89b69c2b068fc378daa952ba7f163c4a11628f55a4df523b3ef91a4949350505050565b60026008540361266757604051633ee5aeb560e01b815260040160405180910390fd5b6002600855565b61084e828260405180602001604052806000815250612bec565b60008281526006602052604090206126a082826135ed565b506040518281527ff8e1a15aba9398e019f0b49df1a4fde98ee17ae345cb5f6b5e2c27f5033e8ce79060200160405180910390a15050565b6007546001600160a01b031633146115005760405163118cdaa760e01b8152336004820152602401610a68565b600780546001600160a01b038381166001600160a01b0319831681179093556040519116919082907f8be0079c531659141344cd1fd0a4f28419497f9722a3daafe3b4186f6b6457e090600090a35050565b6001600160a01b03821661278957604051630b61174360e31b81526001600160a01b0383166004820152602401610a68565b6001600160a01b03838116600081815260056020908152604080832094871680845294825291829020805460ff191686151590811790915591519182527f17307eab39ab6107e8899845ad3d59bd9653f200f220920489ca2b5937696c31910160405180910390a3505050565b6001600160a01b0383163b1561291a57604051630a85bd0160e11b81526001600160a01b0384169063150b7a02906128389088908890879087906004016136cf565b6020604051808303816000875af1925050508015612873575060408051601f3d908101601f191682019092526128709181019061370c565b60015b6128dc573d8080156128a1576040519150601f19603f3d011682016040523d82523d6000602084013e6128a6565b606091505b5080516000036128d457604051633250574960e11b81526001600160a01b0385166004820152602401610a68565b805160208201fd5b6001600160e01b03198116630a85bd0160e11b1461291857604051633250574960e11b81526001600160a01b0385166004820152602401610a68565b505b5050505050565b606061292c82612505565b5060008281526006602052604081208054612946906134bf565b80601f0160208091040260200160405190810160405280929190818152602001828054612972906134bf565b80156129bf5780601f10612994576101008083540402835291602001916129bf565b820191906000526020600020905b8154815290600101906020018083116129a257829003601f168201915b5050505050905060006129dd60408051602081019091526000815290565b905080516000036129ef575092915050565b815115612a21578082604051602001612a09929190613729565b60405160208183030381529060405292505050919050565b612a2a84612c04565b949350505050565b60006001600160e01b031982166380ac58cd60e01b1480612a6357506001600160e01b03198216635b5e139f60e01b145b8061078257506301ffc9a760e01b6001600160e01b0319831614610782565b8080612a9657506001600160a01b03821615155b15612b58576000612aa684612505565b90506001600160a01b03831615801590612ad25750826001600160a01b0316816001600160a01b031614155b8015612ae55750612ae38184611fce565b155b15612b0e5760405163a9fbf51f60e01b81526001600160a01b0384166004820152602401610a68565b8115612b565783856001600160a01b0316826001600160a01b03167f8c5be1e5ebec7d5bd14f71427d1e84f3dd0314c0f7b2291e5b200ac8c7c3b92560405160405180910390a45b505b5050600090815260046020526040902080546001600160a01b0319166001600160a01b0392909216919091179055565b612b93838383612c79565b611434576001600160a01b038316612bc157604051637e27328960e01b815260048101829052602401610a68565b60405163177e802f60e01b81526001600160a01b038316600482015260248101829052604401610a68565b612bf68383612cdc565b6114343360008585856127f6565b6060612c0f82612505565b506000612c2760408051602081019091526000815290565b90506000815111612c475760405180602001604052806000815250612c72565b80612c5184612d41565b604051602001612c62929190613729565b6040516020818303038152906040525b9392505050565b60006001600160a01b03831615801590612a2a5750826001600160a01b0316846001600160a01b03161480612cb35750612cb38484611fce565b80612a2a5750506000908152600460205260409020546001600160a01b03908116911614919050565b6001600160a01b038216612d0657604051633250574960e11b815260006004820152602401610a68565b6000612d148383600061254b565b90506001600160a01b03811615611434576040516339e3563760e11b815260006004820152602401610a68565b60606000612d4e83612dd4565b600101905060008167ffffffffffffffff811115612d6e57612d6e6131cd565b6040519080825280601f01601f191660200182016040528015612d98576020820181803683370190505b5090508181016020015b600019016f181899199a1a9b1b9c1cb0b131b232b360811b600a86061a8153600a8504945084612da257509392505050565b60008072184f03e93ff9f4daa797ed6e38ed64bf6a1f0160401b8310612e135772184f03e93ff9f4daa797ed6e38ed64bf6a1f0160401b830492506040015b6d04ee2d6d415b85acef81000000008310612e3f576d04ee2d6d415b85acef8100000000830492506020015b662386f26fc100008310612e5d57662386f26fc10000830492506010015b6305f5e1008310612e75576305f5e100830492506008015b6127108310612e8957612710830492506004015b60648310612e9b576064830492506002015b600a83106107825760010192915050565b6001600160e01b0319811681146112cd57600080fd5b600060208284031215612ed457600080fd5b8135612c7281612eac565b60005b83811015612efa578181015183820152602001612ee2565b50506000910152565b60008151808452612f1b816020860160208601612edf565b601f01601f19169290920160200192915050565b602081526000612c726020830184612f03565b600060208284031215612f5457600080fd5b5035919050565b6001600160a01b03811681146112cd57600080fd5b60008060408385031215612f8357600080fd5b8235612f8e81612f5b565b946020939093013593505050565b60006101208b8352806020840152612fb68184018c612f03565b90508281036040840152612fca818b612f03565b90508281036060840152612fde818a612f03565b6001600160a01b03989098166080840152505060a081019490945260c0840192909252151560e0830152151561010090910152949350505050565b60008060006060848603121561302e57600080fd5b833561303981612f5b565b9250602084013561304981612f5b565b929592945050506040919091013590565b86815285602082015260c06040820152600061307960c0830187612f03565b828103606084015261308b8187612f03565b6080840195909552505090151560a090910152949350505050565b6020808252825182820181905260009190848201906040850190845b818110156130de578351835292840192918401916001016130c2565b50909695505050505050565b6000602082840312156130fc57600080fd5b8135612c7281612f5b565b6000806040838503121561311a57600080fd5b50508035926020909101359150565b60006101208b83528a60208401528060408401526131498184018b612f03565b90508860608401528760808401528660a08401528560c084015282810360e08401526131758186612f03565b9150508215156101008301529a9950505050505050505050565b600080604083850312156131a257600080fd5b82356131ad81612f5b565b9150602083013580151581146131c257600080fd5b809150509250929050565b634e487b7160e01b600052604160045260246000fd5b600067ffffffffffffffff808411156131fe576131fe6131cd565b604051601f8501601f19908116603f01168101908282118183101715613226576132266131cd565b8160405280935085815286868601111561323f57600080fd5b858560208301376000602087830101525050509392505050565b6000806000806080858703121561326f57600080fd5b843561327a81612f5b565b9350602085013561328a81612f5b565b925060408501359150606085013567ffffffffffffffff8111156132ad57600080fd5b8501601f810187136132be57600080fd5b6132cd878235602084016131e3565b91505092959194509250565b600082601f8301126132ea57600080fd5b612c72838335602085016131e3565b6000806000806080858703121561330f57600080fd5b84359350602085013567ffffffffffffffff8082111561332e57600080fd5b61333a888389016132d9565b9450604087013591508082111561335057600080fd5b5061335d878288016132d9565b949793965093946060013593505050565b6000806040838503121561338157600080fd5b823561338c81612f5b565b915060208301356131c281612f5b565b60008060008060008060c087890312156133b557600080fd5b86359550602087013567ffffffffffffffff808211156133d457600080fd5b6133e08a838b016132d9565b965060408901359550606089013594506080890135935060a089013591508082111561340b57600080fd5b5061341889828a016132d9565b9150509295509295509295565b600080600080600060a0868803121561343d57600080fd5b853567ffffffffffffffff8082111561345557600080fd5b61346189838a016132d9565b9650602088013591508082111561347757600080fd5b61348389838a016132d9565b9550604088013591508082111561349957600080fd5b506134a6888289016132d9565b9598949750949560608101359550608001359392505050565b600181811c908216806134d357607f821691505b6020821081036134f357634e487b7160e01b600052602260045260246000fd5b50919050565b60008261351657634e487b7160e01b600052601260045260246000fd5b500690565b634e487b7160e01b600052601160045260246000fd5b808201808211156107825761078261351b565b634e487b7160e01b600052603260045260246000fd5b60006001820161356c5761356c61351b565b5060010190565b60006020828403121561358557600080fd5b8151612c7281612f5b565b80820281158282048414176107825761078261351b565b601f82111561143457600081815260208120601f850160051c810160208610156135ce5750805b601f850160051c820191505b81811015612918578281556001016135da565b815167ffffffffffffffff811115613607576136076131cd565b61361b8161361584546134bf565b846135a7565b602080601f83116001811461365057600084156136385750858301515b600019600386901b1c1916600185901b178555612918565b600085815260208120601f198616915b8281101561367f57888601518255948401946001909101908401613660565b508582101561369d5787850151600019600388901b60f8161c191681555b5050505050600190811b01905550565b6040815260006136c06040830185612f03565b90508260208301529392505050565b6001600160a01b038581168252841660208201526040810183905260806060820181905260009061370290830184612f03565b9695505050505050565b60006020828403121561371e57600080fd5b8151612c7281612eac565b6000835161373b818460208801612edf565b83519083019061374f818360208801612edf565b0194935050505056fea2646970667358221220e78c055a513ee4e2e5cca3827974e22afa4871af9a4a71cb2ad02e7bd4aba81664736f6c63430008140033",
  "linkReferences": {},
  "deployedLinkReferences": {}
}