{
  "_format": "hh-sol-artifact-1",
  "contractName": "MetaMaskTicket",
  "sourceName": "contracts/MetaMaskTicket.sol",
  "abi": [
    {
      "inputs": [],
      "stateMutability": "nonpayable",
      "type": "constructor"
    },
    {
      "inputs": [
        {
          "internalType": "address",
          "name": "sender",
          "type": "address"
        },
        {
          "internalType": "uint256",
          "name": "tokenId",
          "type": "uint256"
        },
        {
          "internalType": "address",
          "name": "owner",
          "type": "address"
        }
      ],
      "name": "ERC721IncorrectOwner",
      "type": "error"
    },
    {
      "inputs": [
        {
          "internalType": "address",
          "name": "operator",
          "type": "address"
        },
        {
          "internalType": "uint256",
          "name": "tokenId",
          "type": "uint256"
        }
      ],
      "name": "ERC721InsufficientApproval",
      "type": "error"
    },
    {
      "inputs": [
        {
          "internalType": "address",
          "name": "approver",
          "type": "address"
        }
      ],
      "name": "ERC721InvalidApprover",
      "type": "error"
    },
    {
      "inputs": [
        {
          "internalType": "address",
          "name": "operator",
          "type": "address"
        }
      ],
      "name": "ERC721InvalidOperator",
      "type": "error"
    },
    {
      "inputs": [
        {
          "internalType": "address",
          "name": "owner",
          "type": "address"
        }
      ],
      "name": "ERC721InvalidOwner",
      "type": "error"
    },
    {
      "inputs": [
        {
          "internalType": "address",
          "name": "receiver",
          "type": "address"
        }
      ],
      "name": "ERC721InvalidReceiver",
      "type": "error"
    },
    {
      "inputs": [
        {
          "internalType": "address",
          "name": "sender",
          "type": "address"
        }
      ],
      "name": "ERC721InvalidSender",
      "type": "error"
    },
    {
      "inputs": [
        {
          "internalType": "uint256",
          "name": "tokenId",
          "type": "uint256"
        }
      ],
      "name": "ERC721NonexistentToken",
      "type": "error"
    },
    {
      "inputs": [
        {
          "internalType": "address",
          "name": "owner",
          "type": "address"
        }
      ],
      "name": "OwnableInvalidOwner",
      "type": "error"
    },
    {
      "inputs": [
        {
          "internalType": "address",
          "name": "account",
          "type": "address"
        }
      ],
      "name": "OwnableUnauthorizedAccount",
      "type": "error"
    },
    {
      "anonymous": false,
      "inputs": [
        {
          "indexed": true,
          "internalType": "address",
          "name": "owner",
          "type": "address"
        },
        {
          "indexed": true,
          "internalType": "address",
          "name": "approved",
          "type": "address"
        },
        {
          "indexed": true,
          "internalType": "uint256",
          "name": "tokenId",
          "type": "uint256"
        }
      ],
      "name": "Approval",
      "type": "event"
    },
    {
      "anonymous": false,
      "inputs": [
        {
          "indexed": true,
          "internalType": "address",
          "name": "owner",
          "type": "address"
        },
        {
          "indexed": true,
          "internalType": "address",
          "name": "operator",
          "type": "address"
        },
        {
          "indexed": false,
          "internalType": "bool",
          "name": "approved",
          "type": "bool"
        }
      ],
      "name": "ApprovalForAll",
      "type": "event"
    },
    {
      "anonymous": false,
      "inputs": [
        {
          "indexed": false,
          "internalType": "uint256",
          "name": "_fromTokenId",
          "type": "uint256"
        },
        {
          "indexed": false,
          "internalType": "uint256",
          "name": "_toTokenId",
          "type": "uint256"
        }
      ],
      "name": "BatchMetadataUpdate",
      "type": "event"
    },
    {
      "anonymous": false,
      "inputs": [
        {
          "indexed": false,
          "internalType": "uint256",
          "name": "_tokenId",
          "type": "uint256"
        }
      ],
      "name": "MetadataUpdate",
      "type": "event"
    },
    {
      "anonymous": false,
      "inputs": [
        {
          "indexed": true,
          "internalType": "address",
          "name": "previousOwner",
          "type": "address"
        },
        {
          "indexed": true,
          "internalType": "address",
          "name": "newOwner",
          "type": "address"
        }
      ],
      "name": "OwnershipTransferred",
      "type": "event"
    },
    {
      "anonymous": false,
      "inputs": [
        {
          "indexed": true,
          "internalType": "uint256",
          "name": "tokenId",
          "type": "uint256"
        },
        {
          "indexed": true,
          "internalType": "address",
          "name": "owner",
          "type": "address"
        }
      ],
      "name": "TicketCheckedIn",
      "type": "event"
    },
    {
      "anonymous": false,
      "inputs": [
        {
          "indexed": true,
          "internalType": "uint256",
          "name": "tokenId",
          "type": "uint256"
        },
        {
          "indexed": true,
          "internalType": "address",
          "name": "to",
          "type": "address"
        },
        {
          "indexed": false,
          "internalType": "string",
          "name": "tokenUri",
          "type": "string"
        }
      ],
      "name": "TicketMinted",
      "type": "event"
    },
    {
      "anonymous": false,
      "inputs": [
        {
          "indexed": true,
          "internalType": "address",
          "name": "from",
          "type": "address"
        },
        {
          "indexed": true,
          "internalType": "address",
          "name": "to",
          "type": "address"
        },
        {
          "indexed": true,
          "internalType": "uint256",
          "name": "tokenId",
          "type": "uint256"
        }
      ],
      "name": "Transfer",
      "type": "event"
    },
    {
      "inputs": [
        {
          "internalType": "address",
          "name": "to",
          "type": "address"
        },
        {
          "internalType": "uint256",
          "name": "tokenId",
          "type": "uint256"
        }
      ],
      "name": "approve",
      "outputs": [],
      "stateMutability": "nonpayable",
      "type": "function"
    },
    {
      "inputs": [
        {
          "internalType": "address",
          "name": "owner",
          "type": "address"
        }
      ],
      "name": "balanceOf",
      "outputs": [
        {
          "internalType": "uint256",
          "name": "",
          "type": "uint256"
        }
      ],
      "stateMutability": "view",
      "type": "function"
    },
    {
      "inputs": [
        {
          "internalType": "uint256",
          "name": "tokenId",
          "type": "uint256"
        }
      ],
      "name": "checkIn",
      "outputs": [],
      "stateMutability": "nonpayable",
      "type": "function"
    },
    {
      "inputs": [
        {
          "internalType": "uint256",
          "name": "tokenId",
          "type": "uint256"
        }
      ],
      "name": "getApproved",
      "outputs": [
        {
          "internalType": "address",
          "name": "",
          "type": "address"
        }
      ],
      "stateMutability": "view",
      "type": "function"
    },
    {
      "inputs": [
        {
          "internalType": "address",
          "name": "owner",
          "type": "address"
        },
        {
          "internalType": "address",
          "name": "operator",
          "type": "address"
        }
      ],
      "name": "isApprovedForAll",
      "outputs": [
        {
          "internalType": "bool",
          "name": "",
          "type": "bool"
        }
      ],
      "stateMutability": "view",
      "type": "function"
    },
    {
      "inputs": [
        {
          "internalType": "uint256",
          "name": "",
          "type": "uint256"
        }
      ],
      "name": "isCheckedIn",
      "outputs": [
        {
          "internalType": "bool",
          "name": "",
          "type": "bool"
        }
      ],
      "stateMutability": "view",
      "type": "function"
    },
    {
      "inputs": [
        {
          "internalType": "address",
          "name": "to",
          "type": "address"
        },
        {
          "internalType": "string",
          "name": "tokenUri",
          "type": "string"
        }
      ],
      "name": "mintTo",
      "outputs": [
        {
          "internalType": "uint256",
          "name": "tokenId",
          "type": "uint256"
        }
      ],
      "stateMutability": "nonpayable",
      "type": "function"
    },
    {
      "inputs": [],
      "name": "name",
      "outputs": [
        {
          "internalType": "string",
          "name": "",
          "type": "string"
        }
      ],
      "stateMutability": "view",
      "type": "function"
    },
    {
      "inputs": [],
      "name": "owner",
      "outputs": [
        {
          "internalType": "address",
          "name": "",
          "type": "address"
        }
      ],
      "stateMutability": "view",
      "type": "function"
    },
    {
      "inputs": [
        {
          "internalType": "uint256",
          "name": "tokenId",
          "type": "uint256"
        }
      ],
      "name": "ownerOf",
      "outputs": [
        {
          "internalType": "address",
          "name": "",
          "type": "address"
        }
      ],
      "stateMutability": "view",
      "type": "function"
    },
    {
      "inputs": [],
      "name": "renounceOwnership",
      "outputs": [],
      "stateMutability": "nonpayable",
      "type": "function"
    },
    {
      "inputs": [
        {
          "internalType": "address",
          "name": "from",
          "type": "address"
        },
        {
          "internalType": "address",
          "name": "to",
          "type": "address"
        },
        {
          "internalType": "uint256",
          "name": "tokenId",
          "type": "uint256"
        }
      ],
      "name": "safeTransferFrom",
      "outputs": [],
      "stateMutability": "nonpayable",
      "type": "function"
    },
    {
      "inputs": [
        {
          "internalType": "address",
          "name": "from",
          "type": "address"
        },
        {
          "internalType": "address",
          "name": "to",
          "type": "address"
        },
        {
          "internalType": "uint256",
          "name": "tokenId",
          "type": "uint256"
        },
        {
          "internalType": "bytes",
          "name": "data",
          "type": "bytes"
        }
      ],
      "name": "safeTransferFrom",
      "outputs": [],
      "stateMutability": "nonpayable",
      "type": "function"
    },
    {
      "inputs": [
        {
          "internalType": "address",
          "name": "operator",
          "type": "address"
        },
        {
          "internalType": "bool",
          "name": "approved",
          "type": "bool"
        }
      ],
      "name": "setApprovalForAll",
      "outputs": [],
      "stateMutability": "nonpayable",
      "type": "function"
    },
    {
      "inputs": [
        {
          "internalType": "bytes4",
          "name": "interfaceId",
          "type": "bytes4"
        }
      ],
      "name": "supportsInterface",
      "outputs": [
        {
          "internalType": "bool",
          "name": "",
          "type": "bool"
        }
      ],
      "stateMutability": "view",
      "type": "function"
    },
    {
      "inputs": [],
      "name": "symbol",
      "outputs": [
        {
          "internalType": "string",
          "name": "",
          "type": "string"
        }
      ],
      "stateMutability": "view",
      "type": "function"
    },
    {
      "inputs": [
        {
          "internalType": "uint256",
          "name": "",
          "type": "uint256"
        }
      ],
      "name": "ticketOwner",
      "outputs": [
        {
          "internalType": "address",
          "name": "",
          "type": "address"
        }
      ],
      "stateMutability": "view",
      "type": "function"
    },
    {
      "inputs": [
        {
          "internalType": "uint256",
          "name": "tokenId",
          "type": "uint256"
        }
      ],
      "name": "tokenURI",
      "outputs": [
        {
          "internalType": "string",
          "name": "",
          "type": "string"
        }
      ],
      "stateMutability": "view",
      "type": "function"
    },
    {
      "inputs": [
        {
          "internalType": "address",
          "name": "from",
          "type": "address"
        },
        {
          "internalType": "address",
          "name": "to",
          "type": "address"
        },
        {
          "internalType": "uint256",
          "name": "tokenId",
          "type": "uint256"
        }
      ],
      "name": "transferFrom",
      "outputs": [],
      "stateMutability": "nonpayable",
      "type": "function"
    },
    {
      "inputs": [
        {
          "internalType": "address",
          "name": "newOwner",
          "type": "address"
        }
      ],
      "name": "transferOwnership",
      "outputs": [],
      "stateMutability": "nonpayable",
      "type": "function"
    }
  ],
  "bytecode": "0x60806040523480156200001157600080fd5b50336040518060400160405280600f81526020016e13595d1853585cdac8151a58dad95d608a1b8152506040518060400160405280600581526020016409a9aa892b60db1b81525081600090816200006a9190620001b4565b506001620000798282620001b4565b5050506001600160a01b038116620000ab57604051631e4fbdf760e01b81526000600482015260240160405180910390fd5b620000b681620000bd565b5062000280565b600780546001600160a01b038381166001600160a01b0319831681179093556040519116919082907f8be0079c531659141344cd1fd0a4f28419497f9722a3daafe3b4186f6b6457e090600090a35050565b634e487b7160e01b600052604160045260246000fd5b600181811c908216806200013a57607f821691505b6020821081036200015b57634e487b7160e01b600052602260045260246000fd5b50919050565b601f821115620001af57600081815260208120601f850160051c810160208610156200018a5750805b601f850160051c820191505b81811015620001ab5782815560010162000196565b5050505b505050565b81516001600160401b03811115620001d057620001d06200010f565b620001e881620001e1845462000125565b8462000161565b602080601f831160018114620002205760008415620002075750858301515b600019600386901b1c1916600185901b178555620001ab565b600085815260208120601f198616915b82811015620002515788860151825594840194600190910190840162000230565b5085821015620002705787850151600019600388901b60f8161c191681555b5050505050600190811b01905550565b6116f880620002906000396000f3fe608060405234801561001057600080fd5b506004361061012b5760003560e01c80638da5cb5b116100ad578063c2ff12fc11610071578063c2ff12fc14610284578063c87b56dd146102ad578063e95a644f146102c0578063e985e9c5146102d3578063f2fde38b146102e657600080fd5b80638da5cb5b1461022257806395d89b4114610233578063a22cb4651461023b578063abdd97441461024e578063b88d4fde1461027157600080fd5b806323b872dd116100f457806323b872dd146101ce57806342842e0e146101e15780636352211e146101f457806370a0823114610207578063715018a61461021a57600080fd5b806275a3171461013057806301ffc9a71461015657806306fdde0314610179578063081812fc1461018e578063095ea7b3146101b9575b600080fd5b61014361013e366004611255565b6102f9565b6040519081526020015b60405180910390f35b6101696101643660046112cd565b61039a565b604051901515815260200161014d565b6101816103ab565b60405161014d919061133a565b6101a161019c36600461134d565b61043d565b6040516001600160a01b03909116815260200161014d565b6101cc6101c7366004611366565b610466565b005b6101cc6101dc366004611390565b610475565b6101cc6101ef366004611390565b610505565b6101a161020236600461134d565b610525565b6101436102153660046113cc565b610530565b6101cc610578565b6007546001600160a01b03166101a1565b61018161058c565b6101cc6102493660046113e7565b61059b565b61016961025c36600461134d565b600a6020526000908152604090205460ff1681565b6101cc61027f366004611423565b6105a6565b6101a161029236600461134d565b6009602052600090815260409020546001600160a01b031681565b6101816102bb36600461134d565b6105be565b6101cc6102ce36600461134d565b6106cf565b6101696102e136600461149f565b610836565b6101cc6102f43660046113cc565b610864565b60006103036108a2565b50600880549081906000610316836114d2565b919050555061032583826108cf565b61032f81836108e9565b6000818152600960205260409081902080546001600160a01b0319166001600160a01b038616908117909155905182907f01fe50c1ea65ec45d727411cce4e6ac546a4cc83120dc5d887b7949347bfe7289061038c90869061133a565b60405180910390a392915050565b60006103a582610939565b92915050565b6060600080546103ba906114f9565b80601f01602080910402602001604051908101604052809291908181526020018280546103e6906114f9565b80156104335780601f1061040857610100808354040283529160200191610433565b820191906000526020600020905b81548152906001019060200180831161041657829003601f168201915b5050505050905090565b60006104488261095e565b506000828152600460205260409020546001600160a01b03166103a5565b610471828233610997565b5050565b6001600160a01b0382166104a457604051633250574960e11b8152600060048201526024015b60405180910390fd5b60006104b18383336109a4565b9050836001600160a01b0316816001600160a01b0316146104ff576040516364283d7b60e01b81526001600160a01b038086166004830152602482018490528216604482015260640161049b565b50505050565b610520838383604051806020016040528060008152506105a6565b505050565b60006103a58261095e565b60006001600160a01b03821661055c576040516322718ad960e21b81526000600482015260240161049b565b506001600160a01b031660009081526003602052604090205490565b6105806108a2565b61058a6000610a1e565b565b6060600180546103ba906114f9565b610471338383610a70565b6105b1848484610475565b6104ff3385858585610b0f565b60606105c98261095e565b50600082815260066020526040812080546105e3906114f9565b80601f016020809104026020016040519081016040528092919081815260200182805461060f906114f9565b801561065c5780601f106106315761010080835404028352916020019161065c565b820191906000526020600020905b81548152906001019060200180831161063f57829003601f168201915b50505050509050600061067a60408051602081019091526000815290565b9050805160000361068c575092915050565b8151156106be5780826040516020016106a6929190611533565b60405160208183030381529060405292505050919050565b6106c784610c3a565b949350505050565b6000818152600260205260409020546001600160a01b031661072b5760405162461bcd60e51b8152602060048201526015602482015274151a58dad95d08191bd95cc81b9bdd08195e1a5cdd605a1b604482015260640161049b565b6000818152600960205260409020546001600160a01b031633146107915760405162461bcd60e51b815260206004820152601a60248201527f4e6f7420617574686f72697a656420746f20636865636b20696e000000000000604482015260640161049b565b6000818152600a602052604090205460ff16156107f05760405162461bcd60e51b815260206004820152601960248201527f5469636b657420616c726561647920636865636b656420696e00000000000000604482015260640161049b565b6000818152600a6020526040808220805460ff1916600117905551339183917f9d5d33c284ff2f352ea76eadac5ca814eb48f81ef3e7f4fe19c3de4b75eb4b239190a350565b6001600160a01b03918216600090815260056020908152604080832093909416825291909152205460ff1690565b61086c6108a2565b6001600160a01b03811661089657604051631e4fbdf760e01b81526000600482015260240161049b565b61089f81610a1e565b50565b6007546001600160a01b0316331461058a5760405163118cdaa760e01b815233600482015260240161049b565b610471828260405180602001604052806000815250610caf565b600082815260066020526040902061090182826115a8565b506040518281527ff8e1a15aba9398e019f0b49df1a4fde98ee17ae345cb5f6b5e2c27f5033e8ce79060200160405180910390a15050565b60006001600160e01b03198216632483248360e11b14806103a557506103a582610cc7565b6000818152600260205260408120546001600160a01b0316806103a557604051637e27328960e01b81526004810184905260240161049b565b6105208383836001610d17565b6000828152600260205260408120546001600160a01b03168015610a0a5760405162461bcd60e51b815260206004820152601a60248201527f5469636b6574206973206e6f6e2d7472616e7366657261626c65000000000000604482015260640161049b565b610a15858585610e1d565b95945050505050565b600780546001600160a01b038381166001600160a01b0319831681179093556040519116919082907f8be0079c531659141344cd1fd0a4f28419497f9722a3daafe3b4186f6b6457e090600090a35050565b6001600160a01b038216610aa257604051630b61174360e31b81526001600160a01b038316600482015260240161049b565b6001600160a01b03838116600081815260056020908152604080832094871680845294825291829020805460ff191686151590811790915591519182527f17307eab39ab6107e8899845ad3d59bd9653f200f220920489ca2b5937696c31910160405180910390a3505050565b6001600160a01b0383163b15610c3357604051630a85bd0160e11b81526001600160a01b0384169063150b7a0290610b51908890889087908790600401611668565b6020604051808303816000875af1925050508015610b8c575060408051601f3d908101601f19168201909252610b89918101906116a5565b60015b610bf5573d808015610bba576040519150601f19603f3d011682016040523d82523d6000602084013e610bbf565b606091505b508051600003610bed57604051633250574960e11b81526001600160a01b038516600482015260240161049b565b805160208201fd5b6001600160e01b03198116630a85bd0160e11b14610c3157604051633250574960e11b81526001600160a01b038516600482015260240161049b565b505b5050505050565b6060610c458261095e565b506000610c5d60408051602081019091526000815290565b90506000815111610c7d5760405180602001604052806000815250610ca8565b80610c8784610f16565b604051602001610c98929190611533565b6040516020818303038152906040525b9392505050565b610cb98383610fa9565b610520336000858585610b0f565b60006001600160e01b031982166380ac58cd60e01b1480610cf857506001600160e01b03198216635b5e139f60e01b145b806103a557506301ffc9a760e01b6001600160e01b03198316146103a5565b8080610d2b57506001600160a01b03821615155b15610ded576000610d3b8461095e565b90506001600160a01b03831615801590610d675750826001600160a01b0316816001600160a01b031614155b8015610d7a5750610d788184610836565b155b15610da35760405163a9fbf51f60e01b81526001600160a01b038416600482015260240161049b565b8115610deb5783856001600160a01b0316826001600160a01b03167f8c5be1e5ebec7d5bd14f71427d1e84f3dd0314c0f7b2291e5b200ac8c7c3b92560405160405180910390a45b505b5050600090815260046020526040902080546001600160a01b0319166001600160a01b0392909216919091179055565b6000828152600260205260408120546001600160a01b0390811690831615610e4a57610e4a81848661100e565b6001600160a01b03811615610e8857610e67600085600080610d17565b6001600160a01b038116600090815260036020526040902080546000190190555b6001600160a01b03851615610eb7576001600160a01b0385166000908152600360205260409020805460010190555b60008481526002602052604080822080546001600160a01b0319166001600160a01b0389811691821790925591518793918516917fddf252ad1be2c89b69c2b068fc378daa952ba7f163c4a11628f55a4df523b3ef91a4949350505050565b60606000610f2383611072565b600101905060008167ffffffffffffffff811115610f4357610f436111c9565b6040519080825280601f01601f191660200182016040528015610f6d576020820181803683370190505b5090508181016020015b600019016f181899199a1a9b1b9c1cb0b131b232b360811b600a86061a8153600a8504945084610f7757509392505050565b6001600160a01b038216610fd357604051633250574960e11b81526000600482015260240161049b565b6000610fe1838360006109a4565b90506001600160a01b03811615610520576040516339e3563760e11b81526000600482015260240161049b565b61101983838361114a565b610520576001600160a01b03831661104757604051637e27328960e01b81526004810182905260240161049b565b60405163177e802f60e01b81526001600160a01b03831660048201526024810182905260440161049b565b60008072184f03e93ff9f4daa797ed6e38ed64bf6a1f0160401b83106110b15772184f03e93ff9f4daa797ed6e38ed64bf6a1f0160401b830492506040015b6d04ee2d6d415b85acef810000000083106110dd576d04ee2d6d415b85acef8100000000830492506020015b662386f26fc1000083106110fb57662386f26fc10000830492506010015b6305f5e1008310611113576305f5e100830492506008015b612710831061112757612710830492506004015b60648310611139576064830492506002015b600a83106103a55760010192915050565b60006001600160a01b038316158015906106c75750826001600160a01b0316846001600160a01b0316148061118457506111848484610836565b806106c75750506000908152600460205260409020546001600160a01b03908116911614919050565b80356001600160a01b03811681146111c457600080fd5b919050565b634e487b7160e01b600052604160045260246000fd5b600067ffffffffffffffff808411156111fa576111fa6111c9565b604051601f8501601f19908116603f01168101908282118183101715611222576112226111c9565b8160405280935085815286868601111561123b57600080fd5b858560208301376000602087830101525050509392505050565b6000806040838503121561126857600080fd5b611271836111ad565b9150602083013567ffffffffffffffff81111561128d57600080fd5b8301601f8101851361129e57600080fd5b6112ad858235602084016111df565b9150509250929050565b6001600160e01b03198116811461089f57600080fd5b6000602082840312156112df57600080fd5b8135610ca8816112b7565b60005b838110156113055781810151838201526020016112ed565b50506000910152565b600081518084526113268160208601602086016112ea565b601f01601f19169290920160200192915050565b602081526000610ca8602083018461130e565b60006020828403121561135f57600080fd5b5035919050565b6000806040838503121561137957600080fd5b611382836111ad565b946020939093013593505050565b6000806000606084860312156113a557600080fd5b6113ae846111ad565b92506113bc602085016111ad565b9150604084013590509250925092565b6000602082840312156113de57600080fd5b610ca8826111ad565b600080604083850312156113fa57600080fd5b611403836111ad565b91506020830135801515811461141857600080fd5b809150509250929050565b6000806000806080858703121561143957600080fd5b611442856111ad565b9350611450602086016111ad565b925060408501359150606085013567ffffffffffffffff81111561147357600080fd5b8501601f8101871361148457600080fd5b611493878235602084016111df565b91505092959194509250565b600080604083850312156114b257600080fd5b6114bb836111ad565b91506114c9602084016111ad565b90509250929050565b6000600182016114f257634e487b7160e01b600052601160045260246000fd5b5060010190565b600181811c9082168061150d57607f821691505b60208210810361152d57634e487b7160e01b600052602260045260246000fd5b50919050565b600083516115458184602088016112ea565b8351908301906115598183602088016112ea565b01949350505050565b601f82111561052057600081815260208120601f850160051c810160208610156115895750805b601f850160051c820191505b81811015610c3157828155600101611595565b815167ffffffffffffffff8111156115c2576115c26111c9565b6115d6816115d084546114f9565b84611562565b602080601f83116001811461160b57600084156115f35750858301515b600019600386901b1c1916600185901b178555610c31565b600085815260208120601f198616915b8281101561163a5788860151825594840194600190910190840161161b565b50858210156116585787850151600019600388901b60f8161c191681555b5050505050600190811b01905550565b6001600160a01b038581168252841660208201526040810183905260806060820181905260009061169b9083018461130e565b9695505050505050565b6000602082840312156116b757600080fd5b8151610ca8816112b756fea26469706673582212202662ada467604a4f2f24b0358c449d4bf3e4ffbce659c4c30e3896b4e02344ca64736f6c63430008140033",
  "linkReferences": {},
  "deployedLinkReferences": {}
}