{
  "_format": "hh-sol-artifact-1",
  "contractName": "MetaMaskTicket",
  "sourceName": "contracts/MetaMaskTicket.sol",
  "abi": [
    {
      "inputs": [],
      "stateMutability": "nonpayable",
      "type": "constructor"
    },
    {
      "inputs": [
        {
          "internalType": "address",
          "name": "sender",
          "type": "address"
        },
        {
          "internalType": "uint256",
          "name": "tokenId",
          "type": "uint256"
        },
        {
          "internalType": "address",
          "name": "owner",
          "type": "address"
        }
      ],
      "name": "ERC721IncorrectOwner",
      "type": "error"
    },
    {
      "inputs": [
        {
          "internalType": "address",
          "name": "operator",
          "type": "address"
        },
        {
          "internalType": "uint256",
          "name": "tokenId",
          "type": "uint256"
        }
      ],
      "name": "ERC721InsufficientApproval",
      "type": "error"
    },
    {
      "inputs": [
        {
          "internalType": "address",
          "name": "approver",
          "type": "address"
        }
      ],
      "name": "ERC721InvalidApprover",
      "type": "error"
    },
    {
      "inputs": [
        {
          "internalType": "address",
          "name": "operator",
          "type": "address"
        }
      ],
      "name": "ERC721InvalidOperator",
      "type": "error"
    },
    {
      "inputs": [
        {
          "internalType": "address",
          "name": "owner",
          "type": "address"
        }
      ],
      "name": "ERC721InvalidOwner",
      "type": "error"
    },
    {
      "inputs": [
        {
          "internalType": "address",
          "name": "receiver",
          "type": "address"
        }
      ],
      "name": "ERC721InvalidReceiver",
      "type": "error"
    },
    {
      "inputs": [
        {
          "internalType": "address",
          "name": "sender",
          "type": "address"
        }
      ],
      "name": "ERC721InvalidSender",
      "type": "error"
    },
    {
      "inputs": [
        {
          "internalType": "uint256",
          "name": "tokenId",
          "type": "uint256"
        }
      ],
      "name": "ERC721NonexistentToken",
      "type": "error"
    },
    {
      "inputs": [
        {
          "internalType": "address",
          "name": "owner",
          "type": "address"
        }
      ],
      "name": "OwnableInvalidOwner",
      "type": "error"
    },
    {
      "inputs": [
        {
          "internalType": "address",
          "name": "account",
          "type": "address"
        }
      ],
      "name": "OwnableUnauthorizedAccount",
      "type": "error"
    },
    {
      "anonymous": false,
      "inputs": [
        {
          "indexed": true,
          "internalType": "address",
          "name": "owner",
          "type": "address"
        },
        {
          "indexed": true,
          "internalType": "address",
          "name": "approved",
          "type": "address"
        },
        {
          "indexed": true,
          "internalType": "uint256",
          "name": "tokenId",
          "type": "uint256"
        }
      ],
      "name": "Approval",
      "type": "event"
    },
    {
      "anonymous": false,
      "inputs": [
        {
          "indexed": true,
          "internalType": "address",
          "name": "owner",
          "type": "address"
        },
        {
          "indexed": true,
          "internalType": "address",
          "name": "operator",
          "type": "address"
        },
        {
          "indexed": false,
          "internalType": "bool",
          "name": "approved",
          "type": "bool"
        }
      ],
      "name": "ApprovalForAll",
      "type": "event"
    },
    {
      "anonymous": false,
      "inputs": [
        {
          "indexed": false,
          "internalType": "uint256",
          "name": "_fromTokenId",
          "type": "uint256"
        },
        {
          "indexed": false,
          "internalType": "uint256",
          "name": "_toTokenId",
          "type": "uint256"
        }
      ],
      "name": "BatchMetadataUpdate",
      "type": "event"
    },
    {
      "anonymous": false,
      "inputs": [
        {
          "indexed": false,
          "internalType": "uint256",
          "name": "_tokenId",
          "type": "uint256"
        }
      ],
      "name": "MetadataUpdate",
      "type": "event"
    },
    {
      "anonymous": false,
      "inputs": [
        {
          "indexed": true,
          "internalType": "address",
          "name": "previousOwner",
          "type": "address"
        },
        {
          "indexed": true,
          "internalType": "address",
          "name": "newOwner",
          "type": "address"
        }
      ],
      "name": "OwnershipTransferred",
      "type": "event"
    },
    {
      "anonymous": false,
      "inputs": [
        {
          "indexed": true,
          "internalType": "uint256",
          "name": "tokenId",
          "type": "uint256"
        },
        {
          "indexed": true,
          "internalType": "address",
          "name": "to",
          "type": "address"
        },
        {
          "indexed": false,
          "internalType": "string",
          "name": "tokenUri",
          "type": "string"
        }
      ],
      "name": "TicketMinted",
      "type": "event"
    },
    {
      "anonymous": false,
      "inputs": [
        {
          "indexed": true,
          "internalType": "address",
          "name": "from",
          "type": "address"
        },
        {
          "indexed": true,
          "internalType": "address",
          "name": "to",
          "type": "address"
        },
        {
          "indexed": true,
          "internalType": "uint256",
          "name": "tokenId",
          "type": "uint256"
        }
      ],
      "name": "Transfer",
      "type": "event"
    },
    {
      "inputs": [
        {
          "internalType": "address",
          "name": "to",
          "type": "address"
        },
        {
          "internalType": "uint256",
          "name": "tokenId",
          "type": "uint256"
        }
      ],
      "name": "approve",
      "outputs": [],
      "stateMutability": "nonpayable",
      "type": "function"
    },
    {
      "inputs": [
        {
          "internalType": "address",
          "name": "owner",
          "type": "address"
        }
      ],
      "name": "balanceOf",
      "outputs": [
        {
          "internalType": "uint256",
          "name": "",
          "type": "uint256"
        }
      ],
      "stateMutability": "view",
      "type": "function"
    },
    {
      "inputs": [
        {
          "internalType": "uint256",
          "name": "tokenId",
          "type": "uint256"
        }
      ],
      "name": "getApproved",
      "outputs": [
        {
          "internalType": "address",
          "name": "",
          "type": "address"
        }
      ],
      "stateMutability": "view",
      "type": "function"
    },
    {
      "inputs": [
        {
          "internalType": "address",
          "name": "owner",
          "type": "address"
        },
        {
          "internalType": "address",
          "name": "operator",
          "type": "address"
        }
      ],
      "name": "isApprovedForAll",
      "outputs": [
        {
          "internalType": "bool",
          "name": "",
          "type": "bool"
        }
      ],
      "stateMutability": "view",
      "type": "function"
    },
    {
      "inputs": [
        {
          "internalType": "address",
          "name": "to",
          "type": "address"
        },
        {
          "internalType": "string",
          "name": "tokenUri",
          "type": "string"
        }
      ],
      "name": "mintTo",
      "outputs": [
        {
          "internalType": "uint256",
          "name": "tokenId",
          "type": "uint256"
        }
      ],
      "stateMutability": "nonpayable",
      "type": "function"
    },
    {
      "inputs": [],
      "name": "name",
      "outputs": [
        {
          "internalType": "string",
          "name": "",
          "type": "string"
        }
      ],
      "stateMutability": "view",
      "type": "function"
    },
    {
      "inputs": [],
      "name": "owner",
      "outputs": [
        {
          "internalType": "address",
          "name": "",
          "type": "address"
        }
      ],
      "stateMutability": "view",
      "type": "function"
    },
    {
      "inputs": [
        {
          "internalType": "uint256",
          "name": "tokenId",
          "type": "uint256"
        }
      ],
      "name": "ownerOf",
      "outputs": [
        {
          "internalType": "address",
          "name": "",
          "type": "address"
        }
      ],
      "stateMutability": "view",
      "type": "function"
    },
    {
      "inputs": [],
      "name": "renounceOwnership",
      "outputs": [],
      "stateMutability": "nonpayable",
      "type": "function"
    },
    {
      "inputs": [
        {
          "internalType": "address",
          "name": "from",
          "type": "address"
        },
        {
          "internalType": "address",
          "name": "to",
          "type": "address"
        },
        {
          "internalType": "uint256",
          "name": "tokenId",
          "type": "uint256"
        }
      ],
      "name": "safeTransferFrom",
      "outputs": [],
      "stateMutability": "nonpayable",
      "type": "function"
    },
    {
      "inputs": [
        {
          "internalType": "address",
          "name": "from",
          "type": "address"
        },
        {
          "internalType": "address",
          "name": "to",
          "type": "address"
        },
        {
          "internalType": "uint256",
          "name": "tokenId",
          "type": "uint256"
        },
        {
          "internalType": "bytes",
          "name": "data",
          "type": "bytes"
        }
      ],
      "name": "safeTransferFrom",
      "outputs": [],
      "stateMutability": "nonpayable",
      "type": "function"
    },
    {
      "inputs": [
        {
          "internalType": "address",
          "name": "operator",
          "type": "address"
        },
        {
          "internalType": "bool",
          "name": "approved",
          "type": "bool"
        }
      ],
      "name": "setApprovalForAll",
      "outputs": [],
      "stateMutability": "nonpayable",
      "type": "function"
    },
    {
      "inputs": [
        {
          "internalType": "bytes4",
          "name": "interfaceId",
          "type": "bytes4"
        }
      ],
      "name": "supportsInterface",
      "outputs": [
        {
          "internalType": "bool",
          "name": "",
          "type": "bool"
        }
      ],
      "stateMutability": "view",
      "type": "function"
    },
    {
      "inputs": [],
      "name": "symbol",
      "outputs": [
        {
          "internalType": "string",
          "name": "",
          "type": "string"
        }
      ],
      "stateMutability": "view",
      "type": "function"
    },
    {
      "inputs": [
        {
          "internalType": "uint256",
          "name": "tokenId",
          "type": "uint256"
        }
      ],
      "name": "tokenURI",
      "outputs": [
        {
          "internalType": "string",
          "name": "",
          "type": "string"
        }
      ],
      "stateMutability": "view",
      "type": "function"
    },
    {
      "inputs": [
        {
          "internalType": "address",
          "name": "from",
          "type": "address"
        },
        {
          "internalType": "address",
          "name": "to",
          "type": "address"
        },
        {
          "internalType": "uint256",
          "name": "tokenId",
          "type": "uint256"
        }
      ],
      "name": "transferFrom",
      "outputs": [],
      "stateMutability": "nonpayable",
      "type": "function"
    },
    {
      "inputs": [
        {
          "internalType": "address",
          "name": "newOwner",
          "type": "address"
        }
      ],
      "name": "transferOwnership",
      "outputs": [],
      "stateMutability": "nonpayable",
      "type": "function"
    }
  ],
  "bytecode": "0x60806040523480156200001157600080fd5b50336040518060400160405280600f81526020016e13595d1853585cdac8151a58dad95d608a1b8152506040518060400160405280600581526020016409a9aa892b60db1b81525081600090816200006a9190620001b4565b506001620000798282620001b4565b5050506001600160a01b038116620000ab57604051631e4fbdf760e01b81526000600482015260240160405180910390fd5b620000b681620000bd565b5062000280565b600780546001600160a01b038381166001600160a01b0319831681179093556040519116919082907f8be0079c531659141344cd1fd0a4f28419497f9722a3daafe3b4186f6b6457e090600090a35050565b634e487b7160e01b600052604160045260246000fd5b600181811c908216806200013a57607f821691505b6020821081036200015b57634e487b7160e01b600052602260045260246000fd5b50919050565b601f821115620001af57600081815260208120601f850160051c810160208610156200018a5750805b601f850160051c820191505b81811015620001ab5782815560010162000196565b5050505b505050565b81516001600160401b03811115620001d057620001d06200010f565b620001e881620001e1845462000125565b8462000161565b602080601f831160018114620002205760008415620002075750858301515b600019600386901b1c1916600185901b178555620001ab565b600085815260208120601f198616915b82811015620002515788860151825594840194600190910190840162000230565b5085821015620002705787850151600019600388901b60f8161c191681555b5050505050600190811b01905550565b61147f80620002906000396000f3fe608060405234801561001057600080fd5b506004361061010a5760003560e01c806370a08231116100a2578063a22cb46511610071578063a22cb4651461021a578063b88d4fde1461022d578063c87b56dd14610240578063e985e9c514610253578063f2fde38b1461026657600080fd5b806370a08231146101e6578063715018a6146101f95780638da5cb5b1461020157806395d89b411461021257600080fd5b8063095ea7b3116100de578063095ea7b31461019857806323b872dd146101ad57806342842e0e146101c05780636352211e146101d357600080fd5b806275a3171461010f57806301ffc9a71461013557806306fdde0314610158578063081812fc1461016d575b600080fd5b61012261011d366004610fdc565b610279565b6040519081526020015b60405180910390f35b610148610143366004611054565b6102f7565b604051901515815260200161012c565b610160610308565b60405161012c91906110c1565b61018061017b3660046110d4565b61039a565b6040516001600160a01b03909116815260200161012c565b6101ab6101a63660046110ed565b6103c3565b005b6101ab6101bb366004611117565b6103d2565b6101ab6101ce366004611117565b610462565b6101806101e13660046110d4565b610482565b6101226101f4366004611153565b61048d565b6101ab6104d5565b6007546001600160a01b0316610180565b6101606104e9565b6101ab61022836600461116e565b6104f8565b6101ab61023b3660046111aa565b610503565b61016061024e3660046110d4565b61051b565b610148610261366004611226565b610526565b6101ab610274366004611153565b610554565b6000610283610592565b5060088054908190600061029683611259565b91905055506102a583826105bf565b6102af81836105d9565b826001600160a01b0316817f01fe50c1ea65ec45d727411cce4e6ac546a4cc83120dc5d887b7949347bfe728846040516102e991906110c1565b60405180910390a392915050565b600061030282610629565b92915050565b60606000805461031790611280565b80601f016020809104026020016040519081016040528092919081815260200182805461034390611280565b80156103905780601f1061036557610100808354040283529160200191610390565b820191906000526020600020905b81548152906001019060200180831161037357829003601f168201915b5050505050905090565b60006103a58261064e565b506000828152600460205260409020546001600160a01b0316610302565b6103ce828233610687565b5050565b6001600160a01b03821661040157604051633250574960e11b8152600060048201526024015b60405180910390fd5b600061040e838333610694565b9050836001600160a01b0316816001600160a01b03161461045c576040516364283d7b60e01b81526001600160a01b03808616600483015260248201849052821660448201526064016103f8565b50505050565b61047d83838360405180602001604052806000815250610503565b505050565b60006103028261064e565b60006001600160a01b0382166104b9576040516322718ad960e21b8152600060048201526024016103f8565b506001600160a01b031660009081526003602052604090205490565b6104dd610592565b6104e7600061078d565b565b60606001805461031790611280565b6103ce3383836107df565b61050e8484846103d2565b61045c338585858561087e565b6060610302826109a9565b6001600160a01b03918216600090815260056020908152604080832093909416825291909152205460ff1690565b61055c610592565b6001600160a01b03811661058657604051631e4fbdf760e01b8152600060048201526024016103f8565b61058f8161078d565b50565b6007546001600160a01b031633146104e75760405163118cdaa760e01b81523360048201526024016103f8565b6103ce828260405180602001604052806000815250610aba565b60008281526006602052604090206105f18282611300565b506040518281527ff8e1a15aba9398e019f0b49df1a4fde98ee17ae345cb5f6b5e2c27f5033e8ce79060200160405180910390a15050565b60006001600160e01b03198216632483248360e11b1480610302575061030282610ad2565b6000818152600260205260408120546001600160a01b03168061030257604051637e27328960e01b8152600481018490526024016103f8565b61047d8383836001610b22565b6000828152600260205260408120546001600160a01b03908116908316156106c1576106c1818486610c28565b6001600160a01b038116156106ff576106de600085600080610b22565b6001600160a01b038116600090815260036020526040902080546000190190555b6001600160a01b0385161561072e576001600160a01b0385166000908152600360205260409020805460010190555b60008481526002602052604080822080546001600160a01b0319166001600160a01b0389811691821790925591518793918516917fddf252ad1be2c89b69c2b068fc378daa952ba7f163c4a11628f55a4df523b3ef91a4949350505050565b600780546001600160a01b038381166001600160a01b0319831681179093556040519116919082907f8be0079c531659141344cd1fd0a4f28419497f9722a3daafe3b4186f6b6457e090600090a35050565b6001600160a01b03821661081157604051630b61174360e31b81526001600160a01b03831660048201526024016103f8565b6001600160a01b03838116600081815260056020908152604080832094871680845294825291829020805460ff191686151590811790915591519182527f17307eab39ab6107e8899845ad3d59bd9653f200f220920489ca2b5937696c31910160405180910390a3505050565b6001600160a01b0383163b156109a257604051630a85bd0160e11b81526001600160a01b0384169063150b7a02906108c09088908890879087906004016113c0565b6020604051808303816000875af19250505080156108fb575060408051601f3d908101601f191682019092526108f8918101906113fd565b60015b610964573d808015610929576040519150601f19603f3d011682016040523d82523d6000602084013e61092e565b606091505b50805160000361095c57604051633250574960e11b81526001600160a01b03851660048201526024016103f8565b805160208201fd5b6001600160e01b03198116630a85bd0160e11b146109a057604051633250574960e11b81526001600160a01b03851660048201526024016103f8565b505b5050505050565b60606109b48261064e565b50600082815260066020526040812080546109ce90611280565b80601f01602080910402602001604051908101604052809291908181526020018280546109fa90611280565b8015610a475780601f10610a1c57610100808354040283529160200191610a47565b820191906000526020600020905b815481529060010190602001808311610a2a57829003601f168201915b505050505090506000610a6560408051602081019091526000815290565b90508051600003610a77575092915050565b815115610aa9578082604051602001610a9192919061141a565b60405160208183030381529060405292505050919050565b610ab284610c8c565b949350505050565b610ac48383610d01565b61047d33600085858561087e565b60006001600160e01b031982166380ac58cd60e01b1480610b0357506001600160e01b03198216635b5e139f60e01b145b8061030257506301ffc9a760e01b6001600160e01b0319831614610302565b8080610b3657506001600160a01b03821615155b15610bf8576000610b468461064e565b90506001600160a01b03831615801590610b725750826001600160a01b0316816001600160a01b031614155b8015610b855750610b838184610526565b155b15610bae5760405163a9fbf51f60e01b81526001600160a01b03841660048201526024016103f8565b8115610bf65783856001600160a01b0316826001600160a01b03167f8c5be1e5ebec7d5bd14f71427d1e84f3dd0314c0f7b2291e5b200ac8c7c3b92560405160405180910390a45b505b5050600090815260046020526040902080546001600160a01b0319166001600160a01b0392909216919091179055565b610c33838383610d66565b61047d576001600160a01b038316610c6157604051637e27328960e01b8152600481018290526024016103f8565b60405163177e802f60e01b81526001600160a01b0383166004820152602481018290526044016103f8565b6060610c978261064e565b506000610caf60408051602081019091526000815290565b90506000815111610ccf5760405180602001604052806000815250610cfa565b80610cd984610dc9565b604051602001610cea92919061141a565b6040516020818303038152906040525b9392505050565b6001600160a01b038216610d2b57604051633250574960e11b8152600060048201526024016103f8565b6000610d3983836000610694565b90506001600160a01b0381161561047d576040516339e3563760e11b8152600060048201526024016103f8565b60006001600160a01b03831615801590610ab25750826001600160a01b0316846001600160a01b03161480610da05750610da08484610526565b80610ab25750506000908152600460205260409020546001600160a01b03908116911614919050565b60606000610dd683610e5c565b600101905060008167ffffffffffffffff811115610df657610df6610f50565b6040519080825280601f01601f191660200182016040528015610e20576020820181803683370190505b5090508181016020015b600019016f181899199a1a9b1b9c1cb0b131b232b360811b600a86061a8153600a8504945084610e2a57509392505050565b60008072184f03e93ff9f4daa797ed6e38ed64bf6a1f0160401b8310610e9b5772184f03e93ff9f4daa797ed6e38ed64bf6a1f0160401b830492506040015b6d04ee2d6d415b85acef81000000008310610ec7576d04ee2d6d415b85acef8100000000830492506020015b662386f26fc100008310610ee557662386f26fc10000830492506010015b6305f5e1008310610efd576305f5e100830492506008015b6127108310610f1157612710830492506004015b60648310610f23576064830492506002015b600a83106103025760010192915050565b80356001600160a01b0381168114610f4b57600080fd5b919050565b634e487b7160e01b600052604160045260246000fd5b600067ffffffffffffffff80841115610f8157610f81610f50565b604051601f8501601f19908116603f01168101908282118183101715610fa957610fa9610f50565b81604052809350858152868686011115610fc257600080fd5b858560208301376000602087830101525050509392505050565b60008060408385031215610fef57600080fd5b610ff883610f34565b9150602083013567ffffffffffffffff81111561101457600080fd5b8301601f8101851361102557600080fd5b61103485823560208401610f66565b9150509250929050565b6001600160e01b03198116811461058f57600080fd5b60006020828403121561106657600080fd5b8135610cfa8161103e565b60005b8381101561108c578181015183820152602001611074565b50506000910152565b600081518084526110ad816020860160208601611071565b601f01601f19169290920160200192915050565b602081526000610cfa6020830184611095565b6000602082840312156110e657600080fd5b5035919050565b6000806040838503121561110057600080fd5b61110983610f34565b946020939093013593505050565b60008060006060848603121561112c57600080fd5b61113584610f34565b925061114360208501610f34565b9150604084013590509250925092565b60006020828403121561116557600080fd5b610cfa82610f34565b6000806040838503121561118157600080fd5b61118a83610f34565b91506020830135801515811461119f57600080fd5b809150509250929050565b600080600080608085870312156111c057600080fd5b6111c985610f34565b93506111d760208601610f34565b925060408501359150606085013567ffffffffffffffff8111156111fa57600080fd5b8501601f8101871361120b57600080fd5b61121a87823560208401610f66565b91505092959194509250565b6000806040838503121561123957600080fd5b61124283610f34565b915061125060208401610f34565b90509250929050565b60006001820161127957634e487b7160e01b600052601160045260246000fd5b5060010190565b600181811c9082168061129457607f821691505b6020821081036112b457634e487b7160e01b600052602260045260246000fd5b50919050565b601f82111561047d57600081815260208120601f850160051c810160208610156112e15750805b601f850160051c820191505b818110156109a0578281556001016112ed565b815167ffffffffffffffff81111561131a5761131a610f50565b61132e816113288454611280565b846112ba565b602080601f831160018114611363576000841561134b5750858301515b600019600386901b1c1916600185901b1785556109a0565b600085815260208120601f198616915b8281101561139257888601518255948401946001909101908401611373565b50858210156113b05787850151600019600388901b60f8161c191681555b5050505050600190811b01905550565b6001600160a01b03858116825284166020820152604081018390526080606082018190526000906113f390830184611095565b9695505050505050565b60006020828403121561140f57600080fd5b8151610cfa8161103e565b6000835161142c818460208801611071565b835190830190611440818360208801611071565b0194935050505056fea264697066735822122084bf59a4bd46ae20f568ebe7bae20bf89b4dc6b72f3ec10f25466a434f38e48364736f6c63430008140033",
  "linkReferences": {},
  "deployedLinkReferences": {}
}